{
  "_format": "hh-sol-artifact-1",
  "contractName": "DSCEngine",
  "sourceName": "contracts/DSCEngine.sol",
  "abi": [
    {
      "inputs": [
        {
          "internalType": "address[]",
          "name": "tokenAddresses",
          "type": "address[]"
        },
        {
          "internalType": "address[]",
          "name": "priceFeedAddresses",
          "type": "address[]"
        },
        {
          "internalType": "address",
          "name": "dscAddress",
          "type": "address"
        }
      ],
      "stateMutability": "nonpayable",
      "type": "constructor"
    },
    {
      "inputs": [
        {
          "internalType": "uint256",
          "name": "dscMinted",
          "type": "uint256"
        }
      ],
      "name": "DSCEngine__BelowMinDscLevel",
      "type": "error"
    },
    {
      "inputs": [
        {
          "internalType": "uint256",
          "name": "healthFactor",
          "type": "uint256"
        }
      ],
      "name": "DSCEngine__BreaksHealthFactor",
      "type": "error"
    },
    {
      "inputs": [],
      "name": "DSCEngine__DscBelowThreshold",
      "type": "error"
    },
    {
      "inputs": [],
      "name": "DSCEngine__HealthFactorNotImproved",
      "type": "error"
    },
    {
      "inputs": [],
      "name": "DSCEngine__HealthFactorOk",
      "type": "error"
    },
    {
      "inputs": [],
      "name": "DSCEngine__MintFailed",
      "type": "error"
    },
    {
      "inputs": [],
      "name": "DSCEngine__NeedsMoreThanZero",
      "type": "error"
    },
    {
      "inputs": [],
      "name": "DSCEngine__NotAllowedToken",
      "type": "error"
    },
    {
      "inputs": [],
      "name": "DSCEngine__TokenAddressesAndPriceFeedAddressesMustBeSameLength",
      "type": "error"
    },
    {
      "inputs": [],
      "name": "DSCEngine__TokenAlreadyAdded",
      "type": "error"
    },
    {
      "inputs": [],
      "name": "DSCEngine__TransferFailed",
      "type": "error"
    },
    {
      "inputs": [],
      "name": "OracleLib__StalePrice",
      "type": "error"
    },
    {
      "anonymous": false,
      "inputs": [
        {
          "indexed": true,
          "internalType": "address",
          "name": "user",
          "type": "address"
        },
        {
          "indexed": true,
          "internalType": "address",
          "name": "token",
          "type": "address"
        },
        {
          "indexed": true,
          "internalType": "uint256",
          "name": "amount",
          "type": "uint256"
        }
      ],
      "name": "CollateralDeposited",
      "type": "event"
    },
    {
      "anonymous": false,
      "inputs": [
        {
          "indexed": true,
          "internalType": "address",
          "name": "redeemedFrom",
          "type": "address"
        },
        {
          "indexed": true,
          "internalType": "address",
          "name": "redeemedTo",
          "type": "address"
        },
        {
          "indexed": true,
          "internalType": "address",
          "name": "token",
          "type": "address"
        },
        {
          "indexed": false,
          "internalType": "uint256",
          "name": "amount",
          "type": "uint256"
        }
      ],
      "name": "CollateralRedeemed",
      "type": "event"
    },
    {
      "inputs": [
        {
          "internalType": "uint256",
          "name": "amount",
          "type": "uint256"
        }
      ],
      "name": "burnDsc",
      "outputs": [],
      "stateMutability": "nonpayable",
      "type": "function"
    },
    {
      "inputs": [
        {
          "internalType": "uint256",
          "name": "totalDscMinted",
          "type": "uint256"
        },
        {
          "internalType": "uint256",
          "name": "collateralValueInUsd",
          "type": "uint256"
        }
      ],
      "name": "calculateHealthFactor",
      "outputs": [
        {
          "internalType": "uint256",
          "name": "",
          "type": "uint256"
        }
      ],
      "stateMutability": "pure",
      "type": "function"
    },
    {
      "inputs": [
        {
          "internalType": "address",
          "name": "tokenCollateralAddress",
          "type": "address"
        },
        {
          "internalType": "uint256",
          "name": "amountCollateral",
          "type": "uint256"
        }
      ],
      "name": "depositCollateral",
      "outputs": [],
      "stateMutability": "nonpayable",
      "type": "function"
    },
    {
      "inputs": [
        {
          "internalType": "address",
          "name": "tokenCollateralAddress",
          "type": "address"
        },
        {
          "internalType": "uint256",
          "name": "amountCollateral",
          "type": "uint256"
        },
        {
          "internalType": "uint256",
          "name": "amountDscToMint",
          "type": "uint256"
        }
      ],
      "name": "depositCollateralAndMintDsc",
      "outputs": [],
      "stateMutability": "nonpayable",
      "type": "function"
    },
    {
      "inputs": [
        {
          "internalType": "address",
          "name": "user",
          "type": "address"
        }
      ],
      "name": "getAccountCollateralValue",
      "outputs": [
        {
          "internalType": "uint256",
          "name": "totalCollateralValueInUsd",
          "type": "uint256"
        }
      ],
      "stateMutability": "view",
      "type": "function"
    },
    {
      "inputs": [
        {
          "internalType": "address",
          "name": "user",
          "type": "address"
        }
      ],
      "name": "getAccountInformation",
      "outputs": [
        {
          "internalType": "uint256",
          "name": "totalDscMinted",
          "type": "uint256"
        },
        {
          "internalType": "uint256",
          "name": "collateralValueInUsd",
          "type": "uint256"
        }
      ],
      "stateMutability": "view",
      "type": "function"
    },
    {
      "inputs": [],
      "name": "getAdditionalFeedPrecision",
      "outputs": [
        {
          "internalType": "uint256",
          "name": "",
          "type": "uint256"
        }
      ],
      "stateMutability": "pure",
      "type": "function"
    },
    {
      "inputs": [
        {
          "internalType": "address",
          "name": "user",
          "type": "address"
        },
        {
          "internalType": "address",
          "name": "token",
          "type": "address"
        }
      ],
      "name": "getCollateralBalanceOfUser",
      "outputs": [
        {
          "internalType": "uint256",
          "name": "",
          "type": "uint256"
        }
      ],
      "stateMutability": "view",
      "type": "function"
    },
    {
      "inputs": [
        {
          "internalType": "address",
          "name": "token",
          "type": "address"
        }
      ],
      "name": "getCollateralTokenPriceFeed",
      "outputs": [
        {
          "internalType": "address",
          "name": "",
          "type": "address"
        }
      ],
      "stateMutability": "view",
      "type": "function"
    },
    {
      "inputs": [],
      "name": "getCollateralTokens",
      "outputs": [
        {
          "internalType": "address[]",
          "name": "",
          "type": "address[]"
        }
      ],
      "stateMutability": "view",
      "type": "function"
    },
    {
      "inputs": [],
      "name": "getDsc",
      "outputs": [
        {
          "internalType": "address",
          "name": "",
          "type": "address"
        }
      ],
      "stateMutability": "view",
      "type": "function"
    },
    {
      "inputs": [
        {
          "internalType": "address",
          "name": "user",
          "type": "address"
        }
      ],
      "name": "getHealthFactor",
      "outputs": [
        {
          "internalType": "uint256",
          "name": "",
          "type": "uint256"
        }
      ],
      "stateMutability": "view",
      "type": "function"
    },
    {
      "inputs": [],
      "name": "getLiquidationBonus",
      "outputs": [
        {
          "internalType": "uint256",
          "name": "",
          "type": "uint256"
        }
      ],
      "stateMutability": "pure",
      "type": "function"
    },
    {
      "inputs": [],
      "name": "getLiquidationThreshold",
      "outputs": [
        {
          "internalType": "uint256",
          "name": "",
          "type": "uint256"
        }
      ],
      "stateMutability": "pure",
      "type": "function"
    },
    {
      "inputs": [],
      "name": "getMinHealthFactor",
      "outputs": [
        {
          "internalType": "uint256",
          "name": "",
          "type": "uint256"
        }
      ],
      "stateMutability": "pure",
      "type": "function"
    },
    {
      "inputs": [],
      "name": "getPrecision",
      "outputs": [
        {
          "internalType": "uint256",
          "name": "",
          "type": "uint256"
        }
      ],
      "stateMutability": "pure",
      "type": "function"
    },
    {
      "inputs": [
        {
          "internalType": "address",
          "name": "token",
          "type": "address"
        },
        {
          "internalType": "uint256",
          "name": "amountDSC",
          "type": "uint256"
        }
      ],
      "name": "getTokenAmountFromUsd",
      "outputs": [
        {
          "internalType": "uint256",
          "name": "",
          "type": "uint256"
        }
      ],
      "stateMutability": "view",
      "type": "function"
    },
    {
      "inputs": [
        {
          "internalType": "address",
          "name": "token",
          "type": "address"
        },
        {
          "internalType": "uint256",
          "name": "amount",
          "type": "uint256"
        }
      ],
      "name": "getUsdValue",
      "outputs": [
        {
          "internalType": "uint256",
          "name": "",
          "type": "uint256"
        }
      ],
      "stateMutability": "view",
      "type": "function"
    },
    {
      "inputs": [
        {
          "internalType": "address",
          "name": "collateral",
          "type": "address"
        },
        {
          "internalType": "address",
          "name": "user",
          "type": "address"
        },
        {
          "internalType": "uint256",
          "name": "debtToCover",
          "type": "uint256"
        }
      ],
      "name": "liquidate",
      "outputs": [],
      "stateMutability": "nonpayable",
      "type": "function"
    },
    {
      "inputs": [
        {
          "internalType": "uint256",
          "name": "amountDscToMint",
          "type": "uint256"
        }
      ],
      "name": "mintDsc",
      "outputs": [],
      "stateMutability": "nonpayable",
      "type": "function"
    },
    {
      "inputs": [
        {
          "internalType": "address",
          "name": "tokenCollateralAddress",
          "type": "address"
        },
        {
          "internalType": "uint256",
          "name": "amountCollateral",
          "type": "uint256"
        }
      ],
      "name": "redeemCollateral",
      "outputs": [],
      "stateMutability": "nonpayable",
      "type": "function"
    },
    {
      "inputs": [
        {
          "internalType": "address",
          "name": "tokenCollateralAddress",
          "type": "address"
        },
        {
          "internalType": "uint256",
          "name": "amountCollateral",
          "type": "uint256"
        },
        {
          "internalType": "uint256",
          "name": "amountDscToBurn",
          "type": "uint256"
        }
      ],
      "name": "redeemCollateralForDsc",
      "outputs": [],
      "stateMutability": "nonpayable",
      "type": "function"
    },
    {
      "inputs": [
        {
          "internalType": "address",
          "name": "user",
          "type": "address"
        }
      ],
      "name": "s_DSCMinted",
      "outputs": [
        {
          "internalType": "uint256",
          "name": "amountDscMinted",
          "type": "uint256"
        }
      ],
      "stateMutability": "view",
      "type": "function"
    }
  ],
  "bytecode": "0x60a06040523480156200001157600080fd5b5060405162002923380380620029238339818101604052810190620000379190620004e5565b600160008190555081518351146200007b576040517fb5c5c12600000000000000000000000000000000000000000000000000000000815260040160405180910390fd5b60005b8351811015620002b957600073ffffffffffffffffffffffffffffffffffffffff1660016000868481518110620000ba57620000b96200057f565b5b602002602001015173ffffffffffffffffffffffffffffffffffffffff1673ffffffffffffffffffffffffffffffffffffffff16815260200190815260200160002060009054906101000a900473ffffffffffffffffffffffffffffffffffffffff1673ffffffffffffffffffffffffffffffffffffffff16146200016b576040517fecb540da00000000000000000000000000000000000000000000000000000000815260040160405180910390fd5b8281815181106200018157620001806200057f565b5b602002602001015160016000868481518110620001a357620001a26200057f565b5b602002602001015173ffffffffffffffffffffffffffffffffffffffff1673ffffffffffffffffffffffffffffffffffffffff16815260200190815260200160002060006101000a81548173ffffffffffffffffffffffffffffffffffffffff021916908373ffffffffffffffffffffffffffffffffffffffff16021790555060048482815181106200023b576200023a6200057f565b5b60200260200101519080600181540180825580915050600190039060005260206000200160009091909190916101000a81548173ffffffffffffffffffffffffffffffffffffffff021916908373ffffffffffffffffffffffffffffffffffffffff1602179055508080620002b090620005e7565b9150506200007e565b508073ffffffffffffffffffffffffffffffffffffffff1660808173ffffffffffffffffffffffffffffffffffffffff168152505050505062000634565b6000604051905090565b600080fd5b600080fd5b600080fd5b6000601f19601f8301169050919050565b7f4e487b7100000000000000000000000000000000000000000000000000000000600052604160045260246000fd5b6200035b8262000310565b810181811067ffffffffffffffff821117156200037d576200037c62000321565b5b80604052505050565b600062000392620002f7565b9050620003a0828262000350565b919050565b600067ffffffffffffffff821115620003c357620003c262000321565b5b602082029050602081019050919050565b600080fd5b600073ffffffffffffffffffffffffffffffffffffffff82169050919050565b60006200040682620003d9565b9050919050565b6200041881620003f9565b81146200042457600080fd5b50565b60008151905062000438816200040d565b92915050565b6000620004556200044f84620003a5565b62000386565b905080838252602082019050602084028301858111156200047b576200047a620003d4565b5b835b81811015620004a8578062000493888262000427565b8452602084019350506020810190506200047d565b5050509392505050565b600082601f830112620004ca57620004c96200030b565b5b8151620004dc8482602086016200043e565b91505092915050565b60008060006060848603121562000501576200050062000301565b5b600084015167ffffffffffffffff81111562000522576200052162000306565b5b6200053086828701620004b2565b935050602084015167ffffffffffffffff81111562000554576200055362000306565b5b6200056286828701620004b2565b9250506040620005758682870162000427565b9150509250925092565b7f4e487b7100000000000000000000000000000000000000000000000000000000600052603260045260246000fd5b7f4e487b7100000000000000000000000000000000000000000000000000000000600052601160045260246000fd5b6000819050919050565b6000620005f482620005dd565b91507fffffffffffffffffffffffffffffffffffffffffffffffffffffffffffffffff8203620006295762000628620005ae565b5b600182019050919050565b6080516122be62000665600039600081816110f0015281816111ef0152818161160f01526116b001526122be6000f3fe608060405234801561001057600080fd5b506004361061014d5760003560e01c80639acd81b3116100c3578063d13913771161007c578063d1391377146103c7578063deb8e018146103f7578063e90db8a314610415578063f419ea9c14610431578063f68766081461044d578063fe6bcd7c146104695761014d565b80639acd81b3146102f5578063a5d5db0c14610311578063afea2e481461032d578063b58eb63f1461035d578063c660d1121461037b578063c9b7c327146103ab5761014d565b806359aa9e721161011557806359aa9e721461021c5780637be564fc1461023a5780637d1a44501461026b5780638c1ae6c81461029b5780638f63d667146102b95780639670c0bc146102d75761014d565b806301f72884146101525780631c08adda1461018257806326c01303146101b257806331e92b83146101ce5780634ae9b8bc146101fe575b600080fd5b61016c6004803603810190610167919061192f565b610499565b604051610179919061197e565b60405180910390f35b61019c600480360381019061019791906119f7565b6104ad565b6040516101a99190611a33565b60405180910390f35b6101cc60048036038101906101c79190611a4e565b610516565b005b6101e860048036038101906101e39190611aa1565b610726565b6040516101f5919061197e565b60405180910390f35b6102066107ad565b604051610213919061197e565b60405180910390f35b6102246107b6565b604051610231919061197e565b60405180910390f35b610254600480360381019061024f91906119f7565b6107bf565b604051610262929190611ae1565b60405180910390f35b610285600480360381019061028091906119f7565b6107d8565b604051610292919061197e565b60405180910390f35b6102a36108e3565b6040516102b0919061197e565b60405180910390f35b6102c16108f3565b6040516102ce919061197e565b60405180910390f35b6102df610900565b6040516102ec919061197e565b60405180910390f35b61030f600480360381019061030a9190611b0a565b610910565b005b61032b60048036038101906103269190611b0a565b610975565b005b61034760048036038101906103429190611b0a565b610c36565b604051610354919061197e565b60405180910390f35b610365610d8f565b6040516103729190611c08565b60405180910390f35b61039560048036038101906103909190611b0a565b610e1d565b6040516103a2919061197e565b60405180910390f35b6103c560048036038101906103c09190611c2a565b610f76565b005b6103e160048036038101906103dc91906119f7565b6111d3565b6040516103ee919061197e565b60405180910390f35b6103ff6111eb565b60405161040c9190611a33565b60405180910390f35b61042f600480360381019061042a9190611c57565b611213565b005b61044b60048036038101906104469190611c57565b61122b565b005b61046760048036038101906104629190611c2a565b611243565b005b610483600480360381019061047e91906119f7565b611296565b604051610490919061197e565b60405180910390f35b60006104a583836112a8565b905092915050565b6000600160008373ffffffffffffffffffffffffffffffffffffffff1673ffffffffffffffffffffffffffffffffffffffff16815260200190815260200160002060009054906101000a900473ffffffffffffffffffffffffffffffffffffffff169050919050565b8060008103610551576040517fcb1d3f7d00000000000000000000000000000000000000000000000000000000815260040160405180910390fd5b61055961131f565b60006105648461136e565b9050670de0b6b3a764000081106105a7576040517f32c072f000000000000000000000000000000000000000000000000000000000815260040160405180910390fd5b7fffffffffffffffffffffffffffffffffffffffffffffffffffffffffffffffff83036105e15760006105d985611393565b509050809350505b60006105ed8685610c36565b905060006064600a836106009190611cd9565b61060a9190611d4a565b90506000818361061a9190611d7b565b90506000600260008973ffffffffffffffffffffffffffffffffffffffff1673ffffffffffffffffffffffffffffffffffffffff16815260200190815260200160002060008a73ffffffffffffffffffffffffffffffffffffffff1673ffffffffffffffffffffffffffffffffffffffff1681526020019081526020016000205490508084111580156106ac57508082115b156106b5578091505b6106c188338b856113e8565b6106cc8789336115b7565b60006106d78961136e565b9050858111610712576040517f7c28362000000000000000000000000000000000000000000000000000000000815260040160405180910390fd5b50505050505061072061173e565b50505050565b6000600260008473ffffffffffffffffffffffffffffffffffffffff1673ffffffffffffffffffffffffffffffffffffffff16815260200190815260200160002060008373ffffffffffffffffffffffffffffffffffffffff1673ffffffffffffffffffffffffffffffffffffffff16815260200190815260200160002054905092915050565b60006032905090565b6000600a905090565b6000806107cb83611393565b8092508193505050915091565b600080600090505b6004805490508110156108dd5760006004828154811061080357610802611daf565b5b9060005260206000200160009054906101000a900473ffffffffffffffffffffffffffffffffffffffff1690506000600260008673ffffffffffffffffffffffffffffffffffffffff1673ffffffffffffffffffffffffffffffffffffffff16815260200190815260200160002060008373ffffffffffffffffffffffffffffffffffffffff1673ffffffffffffffffffffffffffffffffffffffff1681526020019081526020016000205490506108bb8282610e1d565b846108c69190611d7b565b9350505080806108d590611dde565b9150506107e0565b50919050565b6000670de0b6b3a7640000905090565b60006402540be400905090565b6000670de0b6b3a7640000905090565b806000810361094b576040517fcb1d3f7d00000000000000000000000000000000000000000000000000000000815260040160405180910390fd5b61095361131f565b61095f333385856113e8565b61096833611748565b61097061173e565b505050565b80600081036109b0576040517fcb1d3f7d00000000000000000000000000000000000000000000000000000000815260040160405180910390fd5b82600073ffffffffffffffffffffffffffffffffffffffff16600160008373ffffffffffffffffffffffffffffffffffffffff1673ffffffffffffffffffffffffffffffffffffffff16815260200190815260200160002060009054906101000a900473ffffffffffffffffffffffffffffffffffffffff1673ffffffffffffffffffffffffffffffffffffffff1603610a76576040517fa802cfbe00000000000000000000000000000000000000000000000000000000815260040160405180910390fd5b610a7e61131f565b82600260003373ffffffffffffffffffffffffffffffffffffffff1673ffffffffffffffffffffffffffffffffffffffff16815260200190815260200160002060008673ffffffffffffffffffffffffffffffffffffffff1673ffffffffffffffffffffffffffffffffffffffff1681526020019081526020016000206000828254610b0a9190611d7b565b92505081905550828473ffffffffffffffffffffffffffffffffffffffff163373ffffffffffffffffffffffffffffffffffffffff167ff1c0dd7e9b98bbff859029005ef89b127af049cd18df1a8d79f0b7e019911e5660405160405180910390a460008473ffffffffffffffffffffffffffffffffffffffff166323b872dd3330876040518463ffffffff1660e01b8152600401610bab93929190611e26565b6020604051808303816000875af1158015610bca573d6000803e3d6000fd5b505050506040513d601f19601f82011682018060405250810190610bee9190611e95565b905080610c27576040517f4dc34d1700000000000000000000000000000000000000000000000000000000815260040160405180910390fd5b50610c3061173e565b50505050565b600080600160008573ffffffffffffffffffffffffffffffffffffffff1673ffffffffffffffffffffffffffffffffffffffff16815260200190815260200160002060009054906101000a900473ffffffffffffffffffffffffffffffffffffffff1690506000610cbc8273ffffffffffffffffffffffffffffffffffffffff166117a6565b50505091505060008273ffffffffffffffffffffffffffffffffffffffff1663313ce5676040518163ffffffff1660e01b8152600401602060405180830381865afa158015610d0f573d6000803e3d6000fd5b505050506040513d601f19601f82011682018060405250810190610d339190611efb565b9050600081600a610d44919061205b565b670de0b6b3a764000084610d589190611cd9565b610d629190611d4a565b905080670de0b6b3a764000087610d799190611cd9565b610d839190611d4a565b94505050505092915050565b60606004805480602002602001604051908101604052809291908181526020018280548015610e1357602002820191906000526020600020905b8160009054906101000a900473ffffffffffffffffffffffffffffffffffffffff1673ffffffffffffffffffffffffffffffffffffffff1681526020019060010190808311610dc9575b5050505050905090565b600080600160008573ffffffffffffffffffffffffffffffffffffffff1673ffffffffffffffffffffffffffffffffffffffff16815260200190815260200160002060009054906101000a900473ffffffffffffffffffffffffffffffffffffffff1690506000610ea38273ffffffffffffffffffffffffffffffffffffffff166117a6565b50505091505060008273ffffffffffffffffffffffffffffffffffffffff1663313ce5676040518163ffffffff1660e01b8152600401602060405180830381865afa158015610ef6573d6000803e3d6000fd5b505050506040513d601f19601f82011682018060405250810190610f1a9190611efb565b9050600081600a610f2b919061205b565b670de0b6b3a764000084610f3f9190611cd9565b610f499190611d4a565b9050670de0b6b3a76400008682610f609190611cd9565b610f6a9190611d4a565b94505050505092915050565b8060008103610fb1576040517fcb1d3f7d00000000000000000000000000000000000000000000000000000000815260040160405180910390fd5b610fb961131f565b6000600360003373ffffffffffffffffffffffffffffffffffffffff1673ffffffffffffffffffffffffffffffffffffffff168152602001908152602001600020549050678ac7230489e8000083826110129190611d7b565b101561109457600360003373ffffffffffffffffffffffffffffffffffffffff1673ffffffffffffffffffffffffffffffffffffffff168152602001908152602001600020546040517fa7db492e00000000000000000000000000000000000000000000000000000000815260040161108b919061197e565b60405180910390fd5b82816110a09190611d7b565b600360003373ffffffffffffffffffffffffffffffffffffffff1673ffffffffffffffffffffffffffffffffffffffff168152602001908152602001600020819055506110ec33611748565b60007f000000000000000000000000000000000000000000000000000000000000000073ffffffffffffffffffffffffffffffffffffffff166340c10f1933866040518363ffffffff1660e01b81526004016111499291906120a6565b6020604051808303816000875af1158015611168573d6000803e3d6000fd5b505050506040513d601f19601f8201168201806040525081019061118c9190611e95565b9050806111c5576040517f30eb0fc900000000000000000000000000000000000000000000000000000000815260040160405180910390fd5b50506111cf61173e565b5050565b60036020528060005260406000206000915090505481565b60007f0000000000000000000000000000000000000000000000000000000000000000905090565b61121d8383610975565b61122681610f76565b505050565b61123481611243565b61123e8383610910565b505050565b806000810361127e576040517fcb1d3f7d00000000000000000000000000000000000000000000000000000000815260040160405180910390fd5b6112898233336115b7565b61129233611748565b5050565b60006112a18261136e565b9050919050565b60008083036112d9577fffffffffffffffffffffffffffffffffffffffffffffffffffffffffffffffff9050611319565b600060646032846112ea9190611cd9565b6112f49190611d4a565b905083670de0b6b3a76400008261130b9190611cd9565b6113159190611d4a565b9150505b92915050565b600260005403611364576040517f08c379a000000000000000000000000000000000000000000000000000000000815260040161135b9061212c565b60405180910390fd5b6002600081905550565b600080600061137c84611393565b9150915061138a82826112a8565b92505050919050565b600080600360008473ffffffffffffffffffffffffffffffffffffffff1673ffffffffffffffffffffffffffffffffffffffff1681526020019081526020016000205491506113e1836107d8565b9050915091565b80600260008673ffffffffffffffffffffffffffffffffffffffff1673ffffffffffffffffffffffffffffffffffffffff16815260200190815260200160002060008473ffffffffffffffffffffffffffffffffffffffff1673ffffffffffffffffffffffffffffffffffffffff1681526020019081526020016000206000828254611474919061214c565b925050819055508173ffffffffffffffffffffffffffffffffffffffff168373ffffffffffffffffffffffffffffffffffffffff168573ffffffffffffffffffffffffffffffffffffffff167fb292db12b8dfa23b760ee5e3bd1d3be184cd8f0eeeacd27ce120d4de4e4721f6846040516114ef919061197e565b60405180910390a460008273ffffffffffffffffffffffffffffffffffffffff1663a9059cbb85846040518363ffffffff1660e01b81526004016115349291906120a6565b6020604051808303816000875af1158015611553573d6000803e3d6000fd5b505050506040513d601f19601f820116820180604052508101906115779190611e95565b9050806115b0576040517f4dc34d1700000000000000000000000000000000000000000000000000000000815260040160405180910390fd5b5050505050565b82600360008473ffffffffffffffffffffffffffffffffffffffff1673ffffffffffffffffffffffffffffffffffffffff1681526020019081526020016000206000828254611606919061214c565b925050819055507f000000000000000000000000000000000000000000000000000000000000000073ffffffffffffffffffffffffffffffffffffffff166323b872dd8230866040518463ffffffff1660e01b815260040161166a93929190611e26565b6020604051808303816000875af1158015611689573d6000803e3d6000fd5b505050506040513d601f19601f820116820180604052508101906116ad9190611e95565b507f000000000000000000000000000000000000000000000000000000000000000073ffffffffffffffffffffffffffffffffffffffff166342966c68846040518263ffffffff1660e01b8152600401611707919061197e565b600060405180830381600087803b15801561172157600080fd5b505af1158015611735573d6000803e3d6000fd5b50505050505050565b6001600081905550565b60006117538261136e565b9050670de0b6b3a76400008110156117a257806040517fe580cc61000000000000000000000000000000000000000000000000000000008152600401611799919061197e565b60405180910390fd5b5050565b6000806000806000806000806000808a73ffffffffffffffffffffffffffffffffffffffff1663feaf968c6040518163ffffffff1660e01b815260040160a060405180830381865afa158015611800573d6000803e3d6000fd5b505050506040513d601f19601f82011682018060405250810190611824919061220d565b94509450945094509450600082148061185457508469ffffffffffffffffffff168169ffffffffffffffffffff16105b1561188b576040517fc4a1093a00000000000000000000000000000000000000000000000000000000815260040160405180910390fd5b60008242611899919061214c565b9050605a8111156118d6576040517fc4a1093a00000000000000000000000000000000000000000000000000000000815260040160405180910390fd5b85858585859a509a509a509a509a5050505050505091939590929450565b600080fd5b6000819050919050565b61190c816118f9565b811461191757600080fd5b50565b60008135905061192981611903565b92915050565b60008060408385031215611946576119456118f4565b5b60006119548582860161191a565b92505060206119658582860161191a565b9150509250929050565b611978816118f9565b82525050565b6000602082019050611993600083018461196f565b92915050565b600073ffffffffffffffffffffffffffffffffffffffff82169050919050565b60006119c482611999565b9050919050565b6119d4816119b9565b81146119df57600080fd5b50565b6000813590506119f1816119cb565b92915050565b600060208284031215611a0d57611a0c6118f4565b5b6000611a1b848285016119e2565b91505092915050565b611a2d816119b9565b82525050565b6000602082019050611a486000830184611a24565b92915050565b600080600060608486031215611a6757611a666118f4565b5b6000611a75868287016119e2565b9350506020611a86868287016119e2565b9250506040611a978682870161191a565b9150509250925092565b60008060408385031215611ab857611ab76118f4565b5b6000611ac6858286016119e2565b9250506020611ad7858286016119e2565b9150509250929050565b6000604082019050611af6600083018561196f565b611b03602083018461196f565b9392505050565b60008060408385031215611b2157611b206118f4565b5b6000611b2f858286016119e2565b9250506020611b408582860161191a565b9150509250929050565b600081519050919050565b600082825260208201905092915050565b6000819050602082019050919050565b611b7f816119b9565b82525050565b6000611b918383611b76565b60208301905092915050565b6000602082019050919050565b6000611bb582611b4a565b611bbf8185611b55565b9350611bca83611b66565b8060005b83811015611bfb578151611be28882611b85565b9750611bed83611b9d565b925050600181019050611bce565b5085935050505092915050565b60006020820190508181036000830152611c228184611baa565b905092915050565b600060208284031215611c4057611c3f6118f4565b5b6000611c4e8482850161191a565b91505092915050565b600080600060608486031215611c7057611c6f6118f4565b5b6000611c7e868287016119e2565b9350506020611c8f8682870161191a565b9250506040611ca08682870161191a565b9150509250925092565b7f4e487b7100000000000000000000000000000000000000000000000000000000600052601160045260246000fd5b6000611ce4826118f9565b9150611cef836118f9565b9250828202611cfd816118f9565b91508282048414831517611d1457611d13611caa565b5b5092915050565b7f4e487b7100000000000000000000000000000000000000000000000000000000600052601260045260246000fd5b6000611d55826118f9565b9150611d60836118f9565b925082611d7057611d6f611d1b565b5b828204905092915050565b6000611d86826118f9565b9150611d91836118f9565b9250828201905080821115611da957611da8611caa565b5b92915050565b7f4e487b7100000000000000000000000000000000000000000000000000000000600052603260045260246000fd5b6000611de9826118f9565b91507fffffffffffffffffffffffffffffffffffffffffffffffffffffffffffffffff8203611e1b57611e1a611caa565b5b600182019050919050565b6000606082019050611e3b6000830186611a24565b611e486020830185611a24565b611e55604083018461196f565b949350505050565b60008115159050919050565b611e7281611e5d565b8114611e7d57600080fd5b50565b600081519050611e8f81611e69565b92915050565b600060208284031215611eab57611eaa6118f4565b5b6000611eb984828501611e80565b91505092915050565b600060ff82169050919050565b611ed881611ec2565b8114611ee357600080fd5b50565b600081519050611ef581611ecf565b92915050565b600060208284031215611f1157611f106118f4565b5b6000611f1f84828501611ee6565b91505092915050565b60008160011c9050919050565b6000808291508390505b6001851115611f7f57808604811115611f5b57611f5a611caa565b5b6001851615611f6a5780820291505b8081029050611f7885611f28565b9450611f3f565b94509492505050565b600082611f985760019050612054565b81611fa65760009050612054565b8160018114611fbc5760028114611fc657611ff5565b6001915050612054565b60ff841115611fd857611fd7611caa565b5b8360020a915084821115611fef57611fee611caa565b5b50612054565b5060208310610133831016604e8410600b841016171561202a5782820a90508381111561202557612024611caa565b5b612054565b6120378484846001611f35565b9250905081840481111561204e5761204d611caa565b5b81810290505b9392505050565b6000612066826118f9565b915061207183611ec2565b925061209e7fffffffffffffffffffffffffffffffffffffffffffffffffffffffffffffffff8484611f88565b905092915050565b60006040820190506120bb6000830185611a24565b6120c8602083018461196f565b9392505050565b600082825260208201905092915050565b7f5265656e7472616e637947756172643a207265656e7472616e742063616c6c00600082015250565b6000612116601f836120cf565b9150612121826120e0565b602082019050919050565b6000602082019050818103600083015261214581612109565b9050919050565b6000612157826118f9565b9150612162836118f9565b925082820390508181111561217a57612179611caa565b5b92915050565b600069ffffffffffffffffffff82169050919050565b61219f81612180565b81146121aa57600080fd5b50565b6000815190506121bc81612196565b92915050565b6000819050919050565b6121d5816121c2565b81146121e057600080fd5b50565b6000815190506121f2816121cc565b92915050565b60008151905061220781611903565b92915050565b600080600080600060a08688031215612229576122286118f4565b5b6000612237888289016121ad565b9550506020612248888289016121e3565b9450506040612259888289016121f8565b935050606061226a888289016121f8565b925050608061227b888289016121ad565b915050929550929590935056fea2646970667358221220951457bb7dc6ace9cdaf8237e00e7cdff334a22713847a475598a5cdd90aecaf64736f6c63430008130033",
  "linkReferences": {},
  "deployedLinkReferences": {}
}