{
  "_format": "hh-sol-artifact-1",
  "contractName": "DSCEngine",
  "sourceName": "contracts/DSCEngine.sol",
  "abi": [
    {
      "inputs": [
        {
          "internalType": "address[]",
          "name": "tokenAddresses",
          "type": "address[]"
        },
        {
          "internalType": "address[]",
          "name": "priceFeedAddresses",
          "type": "address[]"
        },
        {
          "internalType": "address",
          "name": "dscAddress",
          "type": "address"
        }
      ],
      "stateMutability": "nonpayable",
      "type": "constructor"
    },
    {
      "inputs": [
        {
          "internalType": "uint256",
          "name": "healthFactor",
          "type": "uint256"
        }
      ],
      "name": "DSCEngine__BreaksHealthFactor",
      "type": "error"
    },
    {
      "inputs": [],
      "name": "DSCEngine__DscBelowThreshold",
      "type": "error"
    },
    {
      "inputs": [],
      "name": "DSCEngine__HealthFactorNotImproved",
      "type": "error"
    },
    {
      "inputs": [],
      "name": "DSCEngine__HealthFactorOk",
      "type": "error"
    },
    {
      "inputs": [],
      "name": "DSCEngine__MintFailed",
      "type": "error"
    },
    {
      "inputs": [],
      "name": "DSCEngine__NeedsMoreThanZero",
      "type": "error"
    },
    {
      "inputs": [],
      "name": "DSCEngine__NotAllowedToken",
      "type": "error"
    },
    {
      "inputs": [],
      "name": "DSCEngine__TokenAddressesAndPriceFeedAddressesMustBeSameLength",
      "type": "error"
    },
    {
      "inputs": [],
      "name": "DSCEngine__TokenAlreadyAdded",
      "type": "error"
    },
    {
      "inputs": [],
      "name": "DSCEngine__TransferFailed",
      "type": "error"
    },
    {
      "inputs": [],
      "name": "OracleLib__StalePrice",
      "type": "error"
    },
    {
      "anonymous": false,
      "inputs": [
        {
          "indexed": true,
          "internalType": "address",
          "name": "user",
          "type": "address"
        },
        {
          "indexed": true,
          "internalType": "address",
          "name": "token",
          "type": "address"
        },
        {
          "indexed": true,
          "internalType": "uint256",
          "name": "amount",
          "type": "uint256"
        }
      ],
      "name": "CollateralDeposited",
      "type": "event"
    },
    {
      "anonymous": false,
      "inputs": [
        {
          "indexed": true,
          "internalType": "address",
          "name": "redeemedFrom",
          "type": "address"
        },
        {
          "indexed": true,
          "internalType": "address",
          "name": "redeemedTo",
          "type": "address"
        },
        {
          "indexed": true,
          "internalType": "address",
          "name": "token",
          "type": "address"
        },
        {
          "indexed": false,
          "internalType": "uint256",
          "name": "amount",
          "type": "uint256"
        }
      ],
      "name": "CollateralRedeemed",
      "type": "event"
    },
    {
      "inputs": [
        {
          "internalType": "uint256",
          "name": "amount",
          "type": "uint256"
        }
      ],
      "name": "burnDsc",
      "outputs": [],
      "stateMutability": "nonpayable",
      "type": "function"
    },
    {
      "inputs": [
        {
          "internalType": "uint256",
          "name": "totalDscMinted",
          "type": "uint256"
        },
        {
          "internalType": "uint256",
          "name": "collateralValueInUsd",
          "type": "uint256"
        }
      ],
      "name": "calculateHealthFactor",
      "outputs": [
        {
          "internalType": "uint256",
          "name": "",
          "type": "uint256"
        }
      ],
      "stateMutability": "pure",
      "type": "function"
    },
    {
      "inputs": [
        {
          "internalType": "address",
          "name": "tokenCollateralAddress",
          "type": "address"
        },
        {
          "internalType": "uint256",
          "name": "amountCollateral",
          "type": "uint256"
        }
      ],
      "name": "depositCollateral",
      "outputs": [],
      "stateMutability": "nonpayable",
      "type": "function"
    },
    {
      "inputs": [
        {
          "internalType": "address",
          "name": "tokenCollateralAddress",
          "type": "address"
        },
        {
          "internalType": "uint256",
          "name": "amountCollateral",
          "type": "uint256"
        },
        {
          "internalType": "uint256",
          "name": "amountDscToMint",
          "type": "uint256"
        }
      ],
      "name": "depositCollateralAndMintDsc",
      "outputs": [],
      "stateMutability": "nonpayable",
      "type": "function"
    },
    {
      "inputs": [
        {
          "internalType": "address",
          "name": "user",
          "type": "address"
        }
      ],
      "name": "getAccountCollateralValue",
      "outputs": [
        {
          "internalType": "uint256",
          "name": "totalCollateralValueInUsd",
          "type": "uint256"
        }
      ],
      "stateMutability": "view",
      "type": "function"
    },
    {
      "inputs": [
        {
          "internalType": "address",
          "name": "user",
          "type": "address"
        }
      ],
      "name": "getAccountInformation",
      "outputs": [
        {
          "internalType": "uint256",
          "name": "totalDscMinted",
          "type": "uint256"
        },
        {
          "internalType": "uint256",
          "name": "collateralValueInUsd",
          "type": "uint256"
        }
      ],
      "stateMutability": "view",
      "type": "function"
    },
    {
      "inputs": [],
      "name": "getAdditionalFeedPrecision",
      "outputs": [
        {
          "internalType": "uint256",
          "name": "",
          "type": "uint256"
        }
      ],
      "stateMutability": "pure",
      "type": "function"
    },
    {
      "inputs": [
        {
          "internalType": "address",
          "name": "user",
          "type": "address"
        },
        {
          "internalType": "address",
          "name": "token",
          "type": "address"
        }
      ],
      "name": "getCollateralBalanceOfUser",
      "outputs": [
        {
          "internalType": "uint256",
          "name": "",
          "type": "uint256"
        }
      ],
      "stateMutability": "view",
      "type": "function"
    },
    {
      "inputs": [
        {
          "internalType": "address",
          "name": "token",
          "type": "address"
        }
      ],
      "name": "getCollateralTokenPriceFeed",
      "outputs": [
        {
          "internalType": "address",
          "name": "",
          "type": "address"
        }
      ],
      "stateMutability": "view",
      "type": "function"
    },
    {
      "inputs": [],
      "name": "getCollateralTokens",
      "outputs": [
        {
          "internalType": "address[]",
          "name": "",
          "type": "address[]"
        }
      ],
      "stateMutability": "view",
      "type": "function"
    },
    {
      "inputs": [],
      "name": "getDsc",
      "outputs": [
        {
          "internalType": "address",
          "name": "",
          "type": "address"
        }
      ],
      "stateMutability": "view",
      "type": "function"
    },
    {
      "inputs": [
        {
          "internalType": "address",
          "name": "user",
          "type": "address"
        }
      ],
      "name": "getHealthFactor",
      "outputs": [
        {
          "internalType": "uint256",
          "name": "",
          "type": "uint256"
        }
      ],
      "stateMutability": "view",
      "type": "function"
    },
    {
      "inputs": [],
      "name": "getLiquidationBonus",
      "outputs": [
        {
          "internalType": "uint256",
          "name": "",
          "type": "uint256"
        }
      ],
      "stateMutability": "pure",
      "type": "function"
    },
    {
      "inputs": [],
      "name": "getLiquidationThreshold",
      "outputs": [
        {
          "internalType": "uint256",
          "name": "",
          "type": "uint256"
        }
      ],
      "stateMutability": "pure",
      "type": "function"
    },
    {
      "inputs": [],
      "name": "getMinHealthFactor",
      "outputs": [
        {
          "internalType": "uint256",
          "name": "",
          "type": "uint256"
        }
      ],
      "stateMutability": "pure",
      "type": "function"
    },
    {
      "inputs": [],
      "name": "getPrecision",
      "outputs": [
        {
          "internalType": "uint256",
          "name": "",
          "type": "uint256"
        }
      ],
      "stateMutability": "pure",
      "type": "function"
    },
    {
      "inputs": [
        {
          "internalType": "address",
          "name": "token",
          "type": "address"
        },
        {
          "internalType": "uint256",
          "name": "amountDSC",
          "type": "uint256"
        }
      ],
      "name": "getTokenAmountFromUsd",
      "outputs": [
        {
          "internalType": "uint256",
          "name": "",
          "type": "uint256"
        }
      ],
      "stateMutability": "view",
      "type": "function"
    },
    {
      "inputs": [
        {
          "internalType": "address",
          "name": "token",
          "type": "address"
        },
        {
          "internalType": "uint256",
          "name": "amount",
          "type": "uint256"
        }
      ],
      "name": "getUsdValue",
      "outputs": [
        {
          "internalType": "uint256",
          "name": "",
          "type": "uint256"
        }
      ],
      "stateMutability": "view",
      "type": "function"
    },
    {
      "inputs": [
        {
          "internalType": "address",
          "name": "collateral",
          "type": "address"
        },
        {
          "internalType": "address",
          "name": "user",
          "type": "address"
        },
        {
          "internalType": "uint256",
          "name": "debtToCover",
          "type": "uint256"
        }
      ],
      "name": "liquidate",
      "outputs": [],
      "stateMutability": "nonpayable",
      "type": "function"
    },
    {
      "inputs": [
        {
          "internalType": "uint256",
          "name": "amountDscToMint",
          "type": "uint256"
        }
      ],
      "name": "mintDsc",
      "outputs": [],
      "stateMutability": "nonpayable",
      "type": "function"
    },
    {
      "inputs": [
        {
          "internalType": "address",
          "name": "tokenCollateralAddress",
          "type": "address"
        },
        {
          "internalType": "uint256",
          "name": "amountCollateral",
          "type": "uint256"
        }
      ],
      "name": "redeemCollateral",
      "outputs": [],
      "stateMutability": "nonpayable",
      "type": "function"
    },
    {
      "inputs": [
        {
          "internalType": "address",
          "name": "tokenCollateralAddress",
          "type": "address"
        },
        {
          "internalType": "uint256",
          "name": "amountCollateral",
          "type": "uint256"
        },
        {
          "internalType": "uint256",
          "name": "amountDscToBurn",
          "type": "uint256"
        }
      ],
      "name": "redeemCollateralForDsc",
      "outputs": [],
      "stateMutability": "nonpayable",
      "type": "function"
    }
  ],
  "bytecode": "0x60a06040523480156200001157600080fd5b50604051620027fa380380620027fa8339818101604052810190620000379190620004e5565b600160008190555081518351146200007b576040517fb5c5c12600000000000000000000000000000000000000000000000000000000815260040160405180910390fd5b60005b8351811015620002b957600073ffffffffffffffffffffffffffffffffffffffff1660016000868481518110620000ba57620000b96200057f565b5b602002602001015173ffffffffffffffffffffffffffffffffffffffff1673ffffffffffffffffffffffffffffffffffffffff16815260200190815260200160002060009054906101000a900473ffffffffffffffffffffffffffffffffffffffff1673ffffffffffffffffffffffffffffffffffffffff16146200016b576040517fecb540da00000000000000000000000000000000000000000000000000000000815260040160405180910390fd5b8281815181106200018157620001806200057f565b5b602002602001015160016000868481518110620001a357620001a26200057f565b5b602002602001015173ffffffffffffffffffffffffffffffffffffffff1673ffffffffffffffffffffffffffffffffffffffff16815260200190815260200160002060006101000a81548173ffffffffffffffffffffffffffffffffffffffff021916908373ffffffffffffffffffffffffffffffffffffffff16021790555060048482815181106200023b576200023a6200057f565b5b60200260200101519080600181540180825580915050600190039060005260206000200160009091909190916101000a81548173ffffffffffffffffffffffffffffffffffffffff021916908373ffffffffffffffffffffffffffffffffffffffff1602179055508080620002b090620005e7565b9150506200007e565b508073ffffffffffffffffffffffffffffffffffffffff1660808173ffffffffffffffffffffffffffffffffffffffff168152505050505062000634565b6000604051905090565b600080fd5b600080fd5b600080fd5b6000601f19601f8301169050919050565b7f4e487b7100000000000000000000000000000000000000000000000000000000600052604160045260246000fd5b6200035b8262000310565b810181811067ffffffffffffffff821117156200037d576200037c62000321565b5b80604052505050565b600062000392620002f7565b9050620003a0828262000350565b919050565b600067ffffffffffffffff821115620003c357620003c262000321565b5b602082029050602081019050919050565b600080fd5b600073ffffffffffffffffffffffffffffffffffffffff82169050919050565b60006200040682620003d9565b9050919050565b6200041881620003f9565b81146200042457600080fd5b50565b60008151905062000438816200040d565b92915050565b6000620004556200044f84620003a5565b62000386565b905080838252602082019050602084028301858111156200047b576200047a620003d4565b5b835b81811015620004a8578062000493888262000427565b8452602084019350506020810190506200047d565b5050509392505050565b600082601f830112620004ca57620004c96200030b565b5b8151620004dc8482602086016200043e565b91505092915050565b60008060006060848603121562000501576200050062000301565b5b600084015167ffffffffffffffff81111562000522576200052162000306565b5b6200053086828701620004b2565b935050602084015167ffffffffffffffff81111562000554576200055362000306565b5b6200056286828701620004b2565b9250506040620005758682870162000427565b9150509250925092565b7f4e487b7100000000000000000000000000000000000000000000000000000000600052603260045260246000fd5b7f4e487b7100000000000000000000000000000000000000000000000000000000600052601160045260246000fd5b6000819050919050565b6000620005f482620005dd565b91507fffffffffffffffffffffffffffffffffffffffffffffffffffffffffffffffff8203620006295762000628620005ae565b5b600182019050919050565b6080516121956200066560003960008181610fe0015281816110c6015281816114e6015261158701526121956000f3fe608060405234801561001057600080fd5b50600436106101425760003560e01c80639acd81b3116100b8578063c9b7c3271161007c578063c9b7c327146103a0578063deb8e018146103bc578063e90db8a3146103da578063f419ea9c146103f6578063f687660814610412578063fe6bcd7c1461042e57610142565b80639acd81b3146102ea578063a5d5db0c14610306578063afea2e4814610322578063b58eb63f14610352578063c660d1121461037057610142565b806359aa9e721161010a57806359aa9e72146102115780637be564fc1461022f5780637d1a4450146102605780638c1ae6c8146102905780638f63d667146102ae5780639670c0bc146102cc57610142565b806301f72884146101475780631c08adda1461017757806326c01303146101a757806331e92b83146101c35780634ae9b8bc146101f3575b600080fd5b610161600480360381019061015c9190611806565b61045e565b60405161016e9190611855565b60405180910390f35b610191600480360381019061018c91906118ce565b610472565b60405161019e919061190a565b60405180910390f35b6101c160048036038101906101bc9190611925565b6104db565b005b6101dd60048036038101906101d89190611978565b6106ea565b6040516101ea9190611855565b60405180910390f35b6101fb610771565b6040516102089190611855565b60405180910390f35b61021961077a565b6040516102269190611855565b60405180910390f35b610249600480360381019061024491906118ce565b610783565b6040516102579291906119b8565b60405180910390f35b61027a600480360381019061027591906118ce565b61079c565b6040516102879190611855565b60405180910390f35b6102986108a7565b6040516102a59190611855565b60405180910390f35b6102b66108b7565b6040516102c39190611855565b60405180910390f35b6102d46108c4565b6040516102e19190611855565b60405180910390f35b61030460048036038101906102ff91906119e1565b6108d4565b005b610320600480360381019061031b91906119e1565b610939565b005b61033c600480360381019061033791906119e1565b610bfa565b6040516103499190611855565b60405180910390f35b61035a610d53565b6040516103679190611adf565b60405180910390f35b61038a600480360381019061038591906119e1565b610de1565b6040516103979190611855565b60405180910390f35b6103ba60048036038101906103b59190611b01565b610f3a565b005b6103c46110c2565b6040516103d1919061190a565b60405180910390f35b6103f460048036038101906103ef9190611b2e565b6110ea565b005b610410600480360381019061040b9190611b2e565b611102565b005b61042c60048036038101906104279190611b01565b61111a565b005b610448600480360381019061044391906118ce565b61116d565b6040516104559190611855565b60405180910390f35b600061046a838361117f565b905092915050565b6000600160008373ffffffffffffffffffffffffffffffffffffffff1673ffffffffffffffffffffffffffffffffffffffff16815260200190815260200160002060009054906101000a900473ffffffffffffffffffffffffffffffffffffffff169050919050565b8060008103610516576040517fcb1d3f7d00000000000000000000000000000000000000000000000000000000815260040160405180910390fd5b61051e6111f6565b600061052984611245565b9050670de0b6b3a7640000811061056c576040517f32c072f000000000000000000000000000000000000000000000000000000000815260040160405180910390fd5b7fffffffffffffffffffffffffffffffffffffffffffffffffffffffffffffffff83036105a657600061059e8561126a565b509050809350505b60006105b28685610bfa565b905060006064600a836105c59190611bb0565b6105cf9190611c21565b9050600081836105df9190611c52565b90506000600260008973ffffffffffffffffffffffffffffffffffffffff1673ffffffffffffffffffffffffffffffffffffffff16815260200190815260200160002060008a73ffffffffffffffffffffffffffffffffffffffff1673ffffffffffffffffffffffffffffffffffffffff168152602001908152602001600020549050808410801561067057508082115b15610679578091505b61068588338b856112bf565b61069087893361148e565b600061069b89611245565b90508581116106d6576040517f7c28362000000000000000000000000000000000000000000000000000000000815260040160405180910390fd5b5050505050506106e4611615565b50505050565b6000600260008473ffffffffffffffffffffffffffffffffffffffff1673ffffffffffffffffffffffffffffffffffffffff16815260200190815260200160002060008373ffffffffffffffffffffffffffffffffffffffff1673ffffffffffffffffffffffffffffffffffffffff16815260200190815260200160002054905092915050565b60006032905090565b6000600a905090565b60008061078f8361126a565b8092508193505050915091565b600080600090505b6004805490508110156108a1576000600482815481106107c7576107c6611c86565b5b9060005260206000200160009054906101000a900473ffffffffffffffffffffffffffffffffffffffff1690506000600260008673ffffffffffffffffffffffffffffffffffffffff1673ffffffffffffffffffffffffffffffffffffffff16815260200190815260200160002060008373ffffffffffffffffffffffffffffffffffffffff1673ffffffffffffffffffffffffffffffffffffffff16815260200190815260200160002054905061087f8282610de1565b8461088a9190611c52565b93505050808061089990611cb5565b9150506107a4565b50919050565b6000670de0b6b3a7640000905090565b60006402540be400905090565b6000670de0b6b3a7640000905090565b806000810361090f576040517fcb1d3f7d00000000000000000000000000000000000000000000000000000000815260040160405180910390fd5b6109176111f6565b610923333385856112bf565b61092c3361161f565b610934611615565b505050565b8060008103610974576040517fcb1d3f7d00000000000000000000000000000000000000000000000000000000815260040160405180910390fd5b82600073ffffffffffffffffffffffffffffffffffffffff16600160008373ffffffffffffffffffffffffffffffffffffffff1673ffffffffffffffffffffffffffffffffffffffff16815260200190815260200160002060009054906101000a900473ffffffffffffffffffffffffffffffffffffffff1673ffffffffffffffffffffffffffffffffffffffff1603610a3a576040517fa802cfbe00000000000000000000000000000000000000000000000000000000815260040160405180910390fd5b610a426111f6565b82600260003373ffffffffffffffffffffffffffffffffffffffff1673ffffffffffffffffffffffffffffffffffffffff16815260200190815260200160002060008673ffffffffffffffffffffffffffffffffffffffff1673ffffffffffffffffffffffffffffffffffffffff1681526020019081526020016000206000828254610ace9190611c52565b92505081905550828473ffffffffffffffffffffffffffffffffffffffff163373ffffffffffffffffffffffffffffffffffffffff167ff1c0dd7e9b98bbff859029005ef89b127af049cd18df1a8d79f0b7e019911e5660405160405180910390a460008473ffffffffffffffffffffffffffffffffffffffff166323b872dd3330876040518463ffffffff1660e01b8152600401610b6f93929190611cfd565b6020604051808303816000875af1158015610b8e573d6000803e3d6000fd5b505050506040513d601f19601f82011682018060405250810190610bb29190611d6c565b905080610beb576040517f4dc34d1700000000000000000000000000000000000000000000000000000000815260040160405180910390fd5b50610bf4611615565b50505050565b600080600160008573ffffffffffffffffffffffffffffffffffffffff1673ffffffffffffffffffffffffffffffffffffffff16815260200190815260200160002060009054906101000a900473ffffffffffffffffffffffffffffffffffffffff1690506000610c808273ffffffffffffffffffffffffffffffffffffffff1661167d565b50505091505060008273ffffffffffffffffffffffffffffffffffffffff1663313ce5676040518163ffffffff1660e01b8152600401602060405180830381865afa158015610cd3573d6000803e3d6000fd5b505050506040513d601f19601f82011682018060405250810190610cf79190611dd2565b9050600081600a610d089190611f32565b670de0b6b3a764000084610d1c9190611bb0565b610d269190611c21565b905080670de0b6b3a764000087610d3d9190611bb0565b610d479190611c21565b94505050505092915050565b60606004805480602002602001604051908101604052809291908181526020018280548015610dd757602002820191906000526020600020905b8160009054906101000a900473ffffffffffffffffffffffffffffffffffffffff1673ffffffffffffffffffffffffffffffffffffffff1681526020019060010190808311610d8d575b5050505050905090565b600080600160008573ffffffffffffffffffffffffffffffffffffffff1673ffffffffffffffffffffffffffffffffffffffff16815260200190815260200160002060009054906101000a900473ffffffffffffffffffffffffffffffffffffffff1690506000610e678273ffffffffffffffffffffffffffffffffffffffff1661167d565b50505091505060008273ffffffffffffffffffffffffffffffffffffffff1663313ce5676040518163ffffffff1660e01b8152600401602060405180830381865afa158015610eba573d6000803e3d6000fd5b505050506040513d601f19601f82011682018060405250810190610ede9190611dd2565b9050600081600a610eef9190611f32565b670de0b6b3a764000084610f039190611bb0565b610f0d9190611c21565b9050670de0b6b3a76400008682610f249190611bb0565b610f2e9190611c21565b94505050505092915050565b8060008103610f75576040517fcb1d3f7d00000000000000000000000000000000000000000000000000000000815260040160405180910390fd5b610f7d6111f6565b81600360003373ffffffffffffffffffffffffffffffffffffffff1673ffffffffffffffffffffffffffffffffffffffff1681526020019081526020016000206000828254610fcc9190611c52565b92505081905550610fdc3361161f565b60007f000000000000000000000000000000000000000000000000000000000000000073ffffffffffffffffffffffffffffffffffffffff166340c10f1933856040518363ffffffff1660e01b8152600401611039929190611f7d565b6020604051808303816000875af1158015611058573d6000803e3d6000fd5b505050506040513d601f19601f8201168201806040525081019061107c9190611d6c565b9050806110b5576040517f30eb0fc900000000000000000000000000000000000000000000000000000000815260040160405180910390fd5b506110be611615565b5050565b60007f0000000000000000000000000000000000000000000000000000000000000000905090565b6110f48383610939565b6110fd81610f3a565b505050565b61110b8161111a565b61111583836108d4565b505050565b8060008103611155576040517fcb1d3f7d00000000000000000000000000000000000000000000000000000000815260040160405180910390fd5b61116082333361148e565b6111693361161f565b5050565b600061117882611245565b9050919050565b60008083036111b0577fffffffffffffffffffffffffffffffffffffffffffffffffffffffffffffffff90506111f0565b600060646032846111c19190611bb0565b6111cb9190611c21565b905083670de0b6b3a7640000826111e29190611bb0565b6111ec9190611c21565b9150505b92915050565b60026000540361123b576040517f08c379a000000000000000000000000000000000000000000000000000000000815260040161123290612003565b60405180910390fd5b6002600081905550565b60008060006112538461126a565b91509150611261828261117f565b92505050919050565b600080600360008473ffffffffffffffffffffffffffffffffffffffff1673ffffffffffffffffffffffffffffffffffffffff1681526020019081526020016000205491506112b88361079c565b9050915091565b80600260008673ffffffffffffffffffffffffffffffffffffffff1673ffffffffffffffffffffffffffffffffffffffff16815260200190815260200160002060008473ffffffffffffffffffffffffffffffffffffffff1673ffffffffffffffffffffffffffffffffffffffff168152602001908152602001600020600082825461134b9190612023565b925050819055508173ffffffffffffffffffffffffffffffffffffffff168373ffffffffffffffffffffffffffffffffffffffff168573ffffffffffffffffffffffffffffffffffffffff167fb292db12b8dfa23b760ee5e3bd1d3be184cd8f0eeeacd27ce120d4de4e4721f6846040516113c69190611855565b60405180910390a460008273ffffffffffffffffffffffffffffffffffffffff1663a9059cbb85846040518363ffffffff1660e01b815260040161140b929190611f7d565b6020604051808303816000875af115801561142a573d6000803e3d6000fd5b505050506040513d601f19601f8201168201806040525081019061144e9190611d6c565b905080611487576040517f4dc34d1700000000000000000000000000000000000000000000000000000000815260040160405180910390fd5b5050505050565b82600360008473ffffffffffffffffffffffffffffffffffffffff1673ffffffffffffffffffffffffffffffffffffffff16815260200190815260200160002060008282546114dd9190612023565b925050819055507f000000000000000000000000000000000000000000000000000000000000000073ffffffffffffffffffffffffffffffffffffffff166323b872dd8230866040518463ffffffff1660e01b815260040161154193929190611cfd565b6020604051808303816000875af1158015611560573d6000803e3d6000fd5b505050506040513d601f19601f820116820180604052508101906115849190611d6c565b507f000000000000000000000000000000000000000000000000000000000000000073ffffffffffffffffffffffffffffffffffffffff166342966c68846040518263ffffffff1660e01b81526004016115de9190611855565b600060405180830381600087803b1580156115f857600080fd5b505af115801561160c573d6000803e3d6000fd5b50505050505050565b6001600081905550565b600061162a82611245565b9050670de0b6b3a764000081101561167957806040517fe580cc610000000000000000000000000000000000000000000000000000000081526004016116709190611855565b60405180910390fd5b5050565b6000806000806000806000806000808a73ffffffffffffffffffffffffffffffffffffffff1663feaf968c6040518163ffffffff1660e01b815260040160a060405180830381865afa1580156116d7573d6000803e3d6000fd5b505050506040513d601f19601f820116820180604052508101906116fb91906120e4565b94509450945094509450600082148061172b57508469ffffffffffffffffffff168169ffffffffffffffffffff16105b15611762576040517fc4a1093a00000000000000000000000000000000000000000000000000000000815260040160405180910390fd5b600082426117709190612023565b9050605a8111156117ad576040517fc4a1093a00000000000000000000000000000000000000000000000000000000815260040160405180910390fd5b85858585859a509a509a509a509a5050505050505091939590929450565b600080fd5b6000819050919050565b6117e3816117d0565b81146117ee57600080fd5b50565b600081359050611800816117da565b92915050565b6000806040838503121561181d5761181c6117cb565b5b600061182b858286016117f1565b925050602061183c858286016117f1565b9150509250929050565b61184f816117d0565b82525050565b600060208201905061186a6000830184611846565b92915050565b600073ffffffffffffffffffffffffffffffffffffffff82169050919050565b600061189b82611870565b9050919050565b6118ab81611890565b81146118b657600080fd5b50565b6000813590506118c8816118a2565b92915050565b6000602082840312156118e4576118e36117cb565b5b60006118f2848285016118b9565b91505092915050565b61190481611890565b82525050565b600060208201905061191f60008301846118fb565b92915050565b60008060006060848603121561193e5761193d6117cb565b5b600061194c868287016118b9565b935050602061195d868287016118b9565b925050604061196e868287016117f1565b9150509250925092565b6000806040838503121561198f5761198e6117cb565b5b600061199d858286016118b9565b92505060206119ae858286016118b9565b9150509250929050565b60006040820190506119cd6000830185611846565b6119da6020830184611846565b9392505050565b600080604083850312156119f8576119f76117cb565b5b6000611a06858286016118b9565b9250506020611a17858286016117f1565b9150509250929050565b600081519050919050565b600082825260208201905092915050565b6000819050602082019050919050565b611a5681611890565b82525050565b6000611a688383611a4d565b60208301905092915050565b6000602082019050919050565b6000611a8c82611a21565b611a968185611a2c565b9350611aa183611a3d565b8060005b83811015611ad2578151611ab98882611a5c565b9750611ac483611a74565b925050600181019050611aa5565b5085935050505092915050565b60006020820190508181036000830152611af98184611a81565b905092915050565b600060208284031215611b1757611b166117cb565b5b6000611b25848285016117f1565b91505092915050565b600080600060608486031215611b4757611b466117cb565b5b6000611b55868287016118b9565b9350506020611b66868287016117f1565b9250506040611b77868287016117f1565b9150509250925092565b7f4e487b7100000000000000000000000000000000000000000000000000000000600052601160045260246000fd5b6000611bbb826117d0565b9150611bc6836117d0565b9250828202611bd4816117d0565b91508282048414831517611beb57611bea611b81565b5b5092915050565b7f4e487b7100000000000000000000000000000000000000000000000000000000600052601260045260246000fd5b6000611c2c826117d0565b9150611c37836117d0565b925082611c4757611c46611bf2565b5b828204905092915050565b6000611c5d826117d0565b9150611c68836117d0565b9250828201905080821115611c8057611c7f611b81565b5b92915050565b7f4e487b7100000000000000000000000000000000000000000000000000000000600052603260045260246000fd5b6000611cc0826117d0565b91507fffffffffffffffffffffffffffffffffffffffffffffffffffffffffffffffff8203611cf257611cf1611b81565b5b600182019050919050565b6000606082019050611d1260008301866118fb565b611d1f60208301856118fb565b611d2c6040830184611846565b949350505050565b60008115159050919050565b611d4981611d34565b8114611d5457600080fd5b50565b600081519050611d6681611d40565b92915050565b600060208284031215611d8257611d816117cb565b5b6000611d9084828501611d57565b91505092915050565b600060ff82169050919050565b611daf81611d99565b8114611dba57600080fd5b50565b600081519050611dcc81611da6565b92915050565b600060208284031215611de857611de76117cb565b5b6000611df684828501611dbd565b91505092915050565b60008160011c9050919050565b6000808291508390505b6001851115611e5657808604811115611e3257611e31611b81565b5b6001851615611e415780820291505b8081029050611e4f85611dff565b9450611e16565b94509492505050565b600082611e6f5760019050611f2b565b81611e7d5760009050611f2b565b8160018114611e935760028114611e9d57611ecc565b6001915050611f2b565b60ff841115611eaf57611eae611b81565b5b8360020a915084821115611ec657611ec5611b81565b5b50611f2b565b5060208310610133831016604e8410600b8410161715611f015782820a905083811115611efc57611efb611b81565b5b611f2b565b611f0e8484846001611e0c565b92509050818404811115611f2557611f24611b81565b5b81810290505b9392505050565b6000611f3d826117d0565b9150611f4883611d99565b9250611f757fffffffffffffffffffffffffffffffffffffffffffffffffffffffffffffffff8484611e5f565b905092915050565b6000604082019050611f9260008301856118fb565b611f9f6020830184611846565b9392505050565b600082825260208201905092915050565b7f5265656e7472616e637947756172643a207265656e7472616e742063616c6c00600082015250565b6000611fed601f83611fa6565b9150611ff882611fb7565b602082019050919050565b6000602082019050818103600083015261201c81611fe0565b9050919050565b600061202e826117d0565b9150612039836117d0565b925082820390508181111561205157612050611b81565b5b92915050565b600069ffffffffffffffffffff82169050919050565b61207681612057565b811461208157600080fd5b50565b6000815190506120938161206d565b92915050565b6000819050919050565b6120ac81612099565b81146120b757600080fd5b50565b6000815190506120c9816120a3565b92915050565b6000815190506120de816117da565b92915050565b600080600080600060a08688031215612100576120ff6117cb565b5b600061210e88828901612084565b955050602061211f888289016120ba565b9450506040612130888289016120cf565b9350506060612141888289016120cf565b925050608061215288828901612084565b915050929550929590935056fea264697066735822122007d61201b132565966b4e74f29a31be6a98a8288e8f33d07bfe8981918fe9bc764736f6c63430008130033",
  "linkReferences": {},
  "deployedLinkReferences": {}
}