{
  "_format": "hh-sol-artifact-1",
  "contractName": "DSCEngine",
  "sourceName": "contracts/DSCEngine.sol",
  "abi": [
    {
      "inputs": [
        {
          "internalType": "address[]",
          "name": "tokenAddresses",
          "type": "address[]"
        },
        {
          "internalType": "address[]",
          "name": "priceFeedAddresses",
          "type": "address[]"
        },
        {
          "internalType": "address",
          "name": "dscAddress",
          "type": "address"
        }
      ],
      "stateMutability": "nonpayable",
      "type": "constructor"
    },
    {
      "inputs": [
        {
          "internalType": "uint256",
          "name": "dscMinted",
          "type": "uint256"
        }
      ],
      "name": "DSCEngine__BelowMinDscLevel",
      "type": "error"
    },
    {
      "inputs": [
        {
          "internalType": "uint256",
          "name": "healthFactor",
          "type": "uint256"
        }
      ],
      "name": "DSCEngine__BreaksHealthFactor",
      "type": "error"
    },
    {
      "inputs": [],
      "name": "DSCEngine__DscBelowThreshold",
      "type": "error"
    },
    {
      "inputs": [],
      "name": "DSCEngine__HealthFactorNotImproved",
      "type": "error"
    },
    {
      "inputs": [],
      "name": "DSCEngine__HealthFactorOk",
      "type": "error"
    },
    {
      "inputs": [],
      "name": "DSCEngine__InvalidZeroAddress",
      "type": "error"
    },
    {
      "inputs": [],
      "name": "DSCEngine__MintFailed",
      "type": "error"
    },
    {
      "inputs": [],
      "name": "DSCEngine__NeedsMoreThanZero",
      "type": "error"
    },
    {
      "inputs": [],
      "name": "DSCEngine__NotAllowedToken",
      "type": "error"
    },
    {
      "inputs": [],
      "name": "DSCEngine__TokenAddressesAndPriceFeedAddressesMustBeSameLength",
      "type": "error"
    },
    {
      "inputs": [],
      "name": "DSCEngine__TokenAlreadyAdded",
      "type": "error"
    },
    {
      "inputs": [],
      "name": "DSCEngine__TransferFailed",
      "type": "error"
    },
    {
      "inputs": [],
      "name": "OracleLib__StalePrice",
      "type": "error"
    },
    {
      "anonymous": false,
      "inputs": [
        {
          "indexed": true,
          "internalType": "address",
          "name": "user",
          "type": "address"
        },
        {
          "indexed": true,
          "internalType": "address",
          "name": "token",
          "type": "address"
        },
        {
          "indexed": true,
          "internalType": "uint256",
          "name": "amount",
          "type": "uint256"
        }
      ],
      "name": "CollateralDeposited",
      "type": "event"
    },
    {
      "anonymous": false,
      "inputs": [
        {
          "indexed": true,
          "internalType": "address",
          "name": "redeemedFrom",
          "type": "address"
        },
        {
          "indexed": true,
          "internalType": "address",
          "name": "redeemedTo",
          "type": "address"
        },
        {
          "indexed": true,
          "internalType": "address",
          "name": "token",
          "type": "address"
        },
        {
          "indexed": false,
          "internalType": "uint256",
          "name": "amount",
          "type": "uint256"
        }
      ],
      "name": "CollateralRedeemed",
      "type": "event"
    },
    {
      "anonymous": false,
      "inputs": [
        {
          "indexed": true,
          "internalType": "address",
          "name": "liquidator",
          "type": "address"
        },
        {
          "indexed": true,
          "internalType": "uint256",
          "name": "amount",
          "type": "uint256"
        },
        {
          "indexed": true,
          "internalType": "address",
          "name": "user",
          "type": "address"
        }
      ],
      "name": "DscBurnt",
      "type": "event"
    },
    {
      "anonymous": false,
      "inputs": [
        {
          "indexed": true,
          "internalType": "address",
          "name": "user",
          "type": "address"
        },
        {
          "indexed": true,
          "internalType": "uint256",
          "name": "amount",
          "type": "uint256"
        }
      ],
      "name": "DscMinted",
      "type": "event"
    },
    {
      "anonymous": false,
      "inputs": [
        {
          "indexed": true,
          "internalType": "address",
          "name": "liquidator",
          "type": "address"
        },
        {
          "indexed": true,
          "internalType": "address",
          "name": "user",
          "type": "address"
        },
        {
          "indexed": false,
          "internalType": "address",
          "name": "collateral",
          "type": "address"
        },
        {
          "indexed": true,
          "internalType": "uint256",
          "name": "debtToCover",
          "type": "uint256"
        },
        {
          "indexed": false,
          "internalType": "uint256",
          "name": "totalCollateralToRedeem",
          "type": "uint256"
        }
      ],
      "name": "UserLiquidated",
      "type": "event"
    },
    {
      "inputs": [
        {
          "internalType": "uint256",
          "name": "amount",
          "type": "uint256"
        }
      ],
      "name": "burnDsc",
      "outputs": [],
      "stateMutability": "nonpayable",
      "type": "function"
    },
    {
      "inputs": [
        {
          "internalType": "uint256",
          "name": "totalDscMinted",
          "type": "uint256"
        },
        {
          "internalType": "uint256",
          "name": "collateralValueInUsd",
          "type": "uint256"
        }
      ],
      "name": "calculateHealthFactor",
      "outputs": [
        {
          "internalType": "uint256",
          "name": "",
          "type": "uint256"
        }
      ],
      "stateMutability": "pure",
      "type": "function"
    },
    {
      "inputs": [
        {
          "internalType": "address",
          "name": "tokenCollateralAddress",
          "type": "address"
        },
        {
          "internalType": "uint256",
          "name": "amountCollateral",
          "type": "uint256"
        }
      ],
      "name": "depositCollateral",
      "outputs": [],
      "stateMutability": "nonpayable",
      "type": "function"
    },
    {
      "inputs": [
        {
          "internalType": "address",
          "name": "tokenCollateralAddress",
          "type": "address"
        },
        {
          "internalType": "uint256",
          "name": "amountCollateral",
          "type": "uint256"
        },
        {
          "internalType": "uint256",
          "name": "amountDscToMint",
          "type": "uint256"
        }
      ],
      "name": "depositCollateralAndMintDsc",
      "outputs": [],
      "stateMutability": "nonpayable",
      "type": "function"
    },
    {
      "inputs": [
        {
          "internalType": "address",
          "name": "user",
          "type": "address"
        }
      ],
      "name": "getAccountCollateralValue",
      "outputs": [
        {
          "internalType": "uint256",
          "name": "totalCollateralValueInUsd",
          "type": "uint256"
        }
      ],
      "stateMutability": "view",
      "type": "function"
    },
    {
      "inputs": [
        {
          "internalType": "address",
          "name": "user",
          "type": "address"
        }
      ],
      "name": "getAccountInformation",
      "outputs": [
        {
          "internalType": "uint256",
          "name": "totalDscMinted",
          "type": "uint256"
        },
        {
          "internalType": "uint256",
          "name": "collateralValueInUsd",
          "type": "uint256"
        }
      ],
      "stateMutability": "view",
      "type": "function"
    },
    {
      "inputs": [],
      "name": "getAdditionalFeedPrecision",
      "outputs": [
        {
          "internalType": "uint256",
          "name": "",
          "type": "uint256"
        }
      ],
      "stateMutability": "pure",
      "type": "function"
    },
    {
      "inputs": [
        {
          "internalType": "address",
          "name": "user",
          "type": "address"
        },
        {
          "internalType": "address",
          "name": "token",
          "type": "address"
        }
      ],
      "name": "getCollateralBalanceOfUser",
      "outputs": [
        {
          "internalType": "uint256",
          "name": "",
          "type": "uint256"
        }
      ],
      "stateMutability": "view",
      "type": "function"
    },
    {
      "inputs": [
        {
          "internalType": "address",
          "name": "token",
          "type": "address"
        }
      ],
      "name": "getCollateralTokenPriceFeed",
      "outputs": [
        {
          "internalType": "address",
          "name": "",
          "type": "address"
        }
      ],
      "stateMutability": "view",
      "type": "function"
    },
    {
      "inputs": [],
      "name": "getCollateralTokens",
      "outputs": [
        {
          "internalType": "address[]",
          "name": "",
          "type": "address[]"
        }
      ],
      "stateMutability": "view",
      "type": "function"
    },
    {
      "inputs": [],
      "name": "getDsc",
      "outputs": [
        {
          "internalType": "address",
          "name": "",
          "type": "address"
        }
      ],
      "stateMutability": "view",
      "type": "function"
    },
    {
      "inputs": [
        {
          "internalType": "address",
          "name": "user",
          "type": "address"
        }
      ],
      "name": "getHealthFactor",
      "outputs": [
        {
          "internalType": "uint256",
          "name": "",
          "type": "uint256"
        }
      ],
      "stateMutability": "view",
      "type": "function"
    },
    {
      "inputs": [],
      "name": "getLiquidationBonus",
      "outputs": [
        {
          "internalType": "uint256",
          "name": "",
          "type": "uint256"
        }
      ],
      "stateMutability": "pure",
      "type": "function"
    },
    {
      "inputs": [],
      "name": "getLiquidationThreshold",
      "outputs": [
        {
          "internalType": "uint256",
          "name": "",
          "type": "uint256"
        }
      ],
      "stateMutability": "pure",
      "type": "function"
    },
    {
      "inputs": [],
      "name": "getMinHealthFactor",
      "outputs": [
        {
          "internalType": "uint256",
          "name": "",
          "type": "uint256"
        }
      ],
      "stateMutability": "pure",
      "type": "function"
    },
    {
      "inputs": [],
      "name": "getPrecision",
      "outputs": [
        {
          "internalType": "uint256",
          "name": "",
          "type": "uint256"
        }
      ],
      "stateMutability": "pure",
      "type": "function"
    },
    {
      "inputs": [
        {
          "internalType": "address",
          "name": "token",
          "type": "address"
        },
        {
          "internalType": "uint256",
          "name": "amountDSC",
          "type": "uint256"
        }
      ],
      "name": "getTokenAmountFromUsd",
      "outputs": [
        {
          "internalType": "uint256",
          "name": "",
          "type": "uint256"
        }
      ],
      "stateMutability": "view",
      "type": "function"
    },
    {
      "inputs": [
        {
          "internalType": "address",
          "name": "token",
          "type": "address"
        },
        {
          "internalType": "uint256",
          "name": "amount",
          "type": "uint256"
        }
      ],
      "name": "getUsdValue",
      "outputs": [
        {
          "internalType": "uint256",
          "name": "",
          "type": "uint256"
        }
      ],
      "stateMutability": "view",
      "type": "function"
    },
    {
      "inputs": [
        {
          "internalType": "address",
          "name": "collateral",
          "type": "address"
        },
        {
          "internalType": "address",
          "name": "user",
          "type": "address"
        },
        {
          "internalType": "uint256",
          "name": "debtToCover",
          "type": "uint256"
        }
      ],
      "name": "liquidate",
      "outputs": [],
      "stateMutability": "nonpayable",
      "type": "function"
    },
    {
      "inputs": [
        {
          "internalType": "uint256",
          "name": "amountDscToMint",
          "type": "uint256"
        }
      ],
      "name": "mintDsc",
      "outputs": [],
      "stateMutability": "nonpayable",
      "type": "function"
    },
    {
      "inputs": [
        {
          "internalType": "address",
          "name": "tokenCollateralAddress",
          "type": "address"
        },
        {
          "internalType": "uint256",
          "name": "amountCollateral",
          "type": "uint256"
        }
      ],
      "name": "redeemCollateral",
      "outputs": [],
      "stateMutability": "nonpayable",
      "type": "function"
    },
    {
      "inputs": [
        {
          "internalType": "address",
          "name": "tokenCollateralAddress",
          "type": "address"
        },
        {
          "internalType": "uint256",
          "name": "amountCollateral",
          "type": "uint256"
        },
        {
          "internalType": "uint256",
          "name": "amountDscToBurn",
          "type": "uint256"
        }
      ],
      "name": "redeemCollateralForDsc",
      "outputs": [],
      "stateMutability": "nonpayable",
      "type": "function"
    },
    {
      "inputs": [
        {
          "internalType": "address",
          "name": "user",
          "type": "address"
        }
      ],
      "name": "s_DSCMinted",
      "outputs": [
        {
          "internalType": "uint256",
          "name": "amountDscMinted",
          "type": "uint256"
        }
      ],
      "stateMutability": "view",
      "type": "function"
    }
  ],
  "bytecode": "0x60a06040523480156200001157600080fd5b5060405162002bc138038062002bc18339818101604052810190620000379190620005bf565b600160008190555081518351146200007b576040517fb5c5c12600000000000000000000000000000000000000000000000000000000815260040160405180910390fd5b60005b83518110156200039357600073ffffffffffffffffffffffffffffffffffffffff1660016000868481518110620000ba57620000b962000659565b5b602002602001015173ffffffffffffffffffffffffffffffffffffffff1673ffffffffffffffffffffffffffffffffffffffff16815260200190815260200160002060009054906101000a900473ffffffffffffffffffffffffffffffffffffffff1673ffffffffffffffffffffffffffffffffffffffff16146200016b576040517fecb540da00000000000000000000000000000000000000000000000000000000815260040160405180910390fd5b600073ffffffffffffffffffffffffffffffffffffffff1684828151811062000199576200019862000659565b5b602002602001015173ffffffffffffffffffffffffffffffffffffffff1614806200020d5750600073ffffffffffffffffffffffffffffffffffffffff16838281518110620001ed57620001ec62000659565b5b602002602001015173ffffffffffffffffffffffffffffffffffffffff16145b1562000245576040517f96312c2700000000000000000000000000000000000000000000000000000000815260040160405180910390fd5b8281815181106200025b576200025a62000659565b5b6020026020010151600160008684815181106200027d576200027c62000659565b5b602002602001015173ffffffffffffffffffffffffffffffffffffffff1673ffffffffffffffffffffffffffffffffffffffff16815260200190815260200160002060006101000a81548173ffffffffffffffffffffffffffffffffffffffff021916908373ffffffffffffffffffffffffffffffffffffffff160217905550600484828151811062000315576200031462000659565b5b60200260200101519080600181540180825580915050600190039060005260206000200160009091909190916101000a81548173ffffffffffffffffffffffffffffffffffffffff021916908373ffffffffffffffffffffffffffffffffffffffff16021790555080806200038a90620006c1565b9150506200007e565b508073ffffffffffffffffffffffffffffffffffffffff1660808173ffffffffffffffffffffffffffffffffffffffff16815250505050506200070e565b6000604051905090565b600080fd5b600080fd5b600080fd5b6000601f19601f8301169050919050565b7f4e487b7100000000000000000000000000000000000000000000000000000000600052604160045260246000fd5b6200043582620003ea565b810181811067ffffffffffffffff82111715620004575762000456620003fb565b5b80604052505050565b60006200046c620003d1565b90506200047a82826200042a565b919050565b600067ffffffffffffffff8211156200049d576200049c620003fb565b5b602082029050602081019050919050565b600080fd5b600073ffffffffffffffffffffffffffffffffffffffff82169050919050565b6000620004e082620004b3565b9050919050565b620004f281620004d3565b8114620004fe57600080fd5b50565b6000815190506200051281620004e7565b92915050565b60006200052f62000529846200047f565b62000460565b90508083825260208201905060208402830185811115620005555762000554620004ae565b5b835b818110156200058257806200056d888262000501565b84526020840193505060208101905062000557565b5050509392505050565b600082601f830112620005a457620005a3620003e5565b5b8151620005b684826020860162000518565b91505092915050565b600080600060608486031215620005db57620005da620003db565b5b600084015167ffffffffffffffff811115620005fc57620005fb620003e0565b5b6200060a868287016200058c565b935050602084015167ffffffffffffffff8111156200062e576200062d620003e0565b5b6200063c868287016200058c565b92505060406200064f8682870162000501565b9150509250925092565b7f4e487b7100000000000000000000000000000000000000000000000000000000600052603260045260246000fd5b7f4e487b7100000000000000000000000000000000000000000000000000000000600052601160045260246000fd5b6000819050919050565b6000620006ce82620006b7565b91507fffffffffffffffffffffffffffffffffffffffffffffffffffffffffffffffff820362000703576200070262000688565b5b600182019050919050565b6080516124826200073f600039600081816112240152818161136701528181611778015261181901526124826000f3fe608060405234801561001057600080fd5b506004361061014d5760003560e01c80639acd81b3116100c3578063d13913771161007c578063d1391377146103c7578063deb8e018146103f7578063e90db8a314610415578063f419ea9c14610431578063f68766081461044d578063fe6bcd7c146104695761014d565b80639acd81b3146102f5578063a5d5db0c14610311578063afea2e481461032d578063b58eb63f1461035d578063c660d1121461037b578063c9b7c327146103ab5761014d565b806359aa9e721161011557806359aa9e721461021c5780637be564fc1461023a5780637d1a44501461026b5780638c1ae6c81461029b5780638f63d667146102b95780639670c0bc146102d75761014d565b806301f72884146101525780631c08adda1461018257806326c01303146101b257806331e92b83146101ce5780634ae9b8bc146101fe575b600080fd5b61016c60048036038101906101679190611af3565b610499565b6040516101799190611b42565b60405180910390f35b61019c60048036038101906101979190611bbb565b6104ad565b6040516101a99190611bf7565b60405180910390f35b6101cc60048036038101906101c79190611c12565b610516565b005b6101e860048036038101906101e39190611c65565b61078e565b6040516101f59190611b42565b60405180910390f35b610206610815565b6040516102139190611b42565b60405180910390f35b61022461081e565b6040516102319190611b42565b60405180910390f35b610254600480360381019061024f9190611bbb565b610827565b604051610262929190611ca5565b60405180910390f35b61028560048036038101906102809190611bbb565b610840565b6040516102929190611b42565b60405180910390f35b6102a361094b565b6040516102b09190611b42565b60405180910390f35b6102c161095b565b6040516102ce9190611b42565b60405180910390f35b6102df610968565b6040516102ec9190611b42565b60405180910390f35b61030f600480360381019061030a9190611cce565b610978565b005b61032b60048036038101906103269190611cce565b6109dd565b005b61034760048036038101906103429190611cce565b610c9e565b6040516103549190611b42565b60405180910390f35b610365610e5d565b6040516103729190611dcc565b60405180910390f35b61039560048036038101906103909190611cce565b610eeb565b6040516103a29190611b42565b60405180910390f35b6103c560048036038101906103c09190611dee565b6110aa565b005b6103e160048036038101906103dc9190611bbb565b61134b565b6040516103ee9190611b42565b60405180910390f35b6103ff611363565b60405161040c9190611bf7565b60405180910390f35b61042f600480360381019061042a9190611e1b565b61138b565b005b61044b60048036038101906104469190611e1b565b6113a3565b005b61046760048036038101906104629190611dee565b6113bb565b005b610483600480360381019061047e9190611bbb565b611405565b6040516104909190611b42565b60405180910390f35b60006104a58383611417565b905092915050565b6000600160008373ffffffffffffffffffffffffffffffffffffffff1673ffffffffffffffffffffffffffffffffffffffff16815260200190815260200160002060009054906101000a900473ffffffffffffffffffffffffffffffffffffffff169050919050565b8060008103610551576040517fcb1d3f7d00000000000000000000000000000000000000000000000000000000815260040160405180910390fd5b610559611488565b6000610564846114d7565b9050670de0b6b3a764000081106105a7576040517f32c072f000000000000000000000000000000000000000000000000000000000815260040160405180910390fd5b7fffffffffffffffffffffffffffffffffffffffffffffffffffffffffffffffff83036105e15760006105d9856114fc565b509050809350505b60006105ed8685610c9e565b905060006064600a836106009190611e9d565b61060a9190611f0e565b90506000818361061a9190611f3f565b90506000600260008973ffffffffffffffffffffffffffffffffffffffff1673ffffffffffffffffffffffffffffffffffffffff16815260200190815260200160002060008a73ffffffffffffffffffffffffffffffffffffffff1673ffffffffffffffffffffffffffffffffffffffff1681526020019081526020016000205490508084111580156106ac57508082115b156106b5578091505b6106c188338b85611551565b6106cc878933611720565b60006106d7896114d7565b9050858111610712576040517f7c28362000000000000000000000000000000000000000000000000000000000815260040160405180910390fd5b878973ffffffffffffffffffffffffffffffffffffffff163373ffffffffffffffffffffffffffffffffffffffff167f78bc17e9bdcaa125e8b9f6594ad1c44ac45565cbef05aa4fd24fc8eb3d22d64d8d87604051610772929190611f73565b60405180910390a4505050505050610788611902565b50505050565b6000600260008473ffffffffffffffffffffffffffffffffffffffff1673ffffffffffffffffffffffffffffffffffffffff16815260200190815260200160002060008373ffffffffffffffffffffffffffffffffffffffff1673ffffffffffffffffffffffffffffffffffffffff16815260200190815260200160002054905092915050565b60006032905090565b6000600a905090565b600080610833836114fc565b8092508193505050915091565b600080600090505b6004805490508110156109455760006004828154811061086b5761086a611f9c565b5b9060005260206000200160009054906101000a900473ffffffffffffffffffffffffffffffffffffffff1690506000600260008673ffffffffffffffffffffffffffffffffffffffff1673ffffffffffffffffffffffffffffffffffffffff16815260200190815260200160002060008373ffffffffffffffffffffffffffffffffffffffff1673ffffffffffffffffffffffffffffffffffffffff1681526020019081526020016000205490506109238282610eeb565b8461092e9190611f3f565b93505050808061093d90611fcb565b915050610848565b50919050565b6000670de0b6b3a7640000905090565b60006402540be400905090565b6000670de0b6b3a7640000905090565b80600081036109b3576040517fcb1d3f7d00000000000000000000000000000000000000000000000000000000815260040160405180910390fd5b6109bb611488565b6109c733338585611551565b6109d03361190c565b6109d8611902565b505050565b8060008103610a18576040517fcb1d3f7d00000000000000000000000000000000000000000000000000000000815260040160405180910390fd5b82600073ffffffffffffffffffffffffffffffffffffffff16600160008373ffffffffffffffffffffffffffffffffffffffff1673ffffffffffffffffffffffffffffffffffffffff16815260200190815260200160002060009054906101000a900473ffffffffffffffffffffffffffffffffffffffff1673ffffffffffffffffffffffffffffffffffffffff1603610ade576040517fa802cfbe00000000000000000000000000000000000000000000000000000000815260040160405180910390fd5b610ae6611488565b82600260003373ffffffffffffffffffffffffffffffffffffffff1673ffffffffffffffffffffffffffffffffffffffff16815260200190815260200160002060008673ffffffffffffffffffffffffffffffffffffffff1673ffffffffffffffffffffffffffffffffffffffff1681526020019081526020016000206000828254610b729190611f3f565b92505081905550828473ffffffffffffffffffffffffffffffffffffffff163373ffffffffffffffffffffffffffffffffffffffff167ff1c0dd7e9b98bbff859029005ef89b127af049cd18df1a8d79f0b7e019911e5660405160405180910390a460008473ffffffffffffffffffffffffffffffffffffffff166323b872dd3330876040518463ffffffff1660e01b8152600401610c1393929190612013565b6020604051808303816000875af1158015610c32573d6000803e3d6000fd5b505050506040513d601f19601f82011682018060405250810190610c569190612082565b905080610c8f576040517f4dc34d1700000000000000000000000000000000000000000000000000000000815260040160405180910390fd5b50610c98611902565b50505050565b60008073ffffffffffffffffffffffffffffffffffffffff168373ffffffffffffffffffffffffffffffffffffffff1603610d05576040517f96312c2700000000000000000000000000000000000000000000000000000000815260040160405180910390fd5b6000600160008573ffffffffffffffffffffffffffffffffffffffff1673ffffffffffffffffffffffffffffffffffffffff16815260200190815260200160002060009054906101000a900473ffffffffffffffffffffffffffffffffffffffff1690506000610d8a8273ffffffffffffffffffffffffffffffffffffffff1661196a565b50505091505060008273ffffffffffffffffffffffffffffffffffffffff1663313ce5676040518163ffffffff1660e01b8152600401602060405180830381865afa158015610ddd573d6000803e3d6000fd5b505050506040513d601f19601f82011682018060405250810190610e0191906120e8565b9050600081600a610e129190612248565b670de0b6b3a764000084610e269190611e9d565b610e309190611f0e565b905080670de0b6b3a764000087610e479190611e9d565b610e519190611f0e565b94505050505092915050565b60606004805480602002602001604051908101604052809291908181526020018280548015610ee157602002820191906000526020600020905b8160009054906101000a900473ffffffffffffffffffffffffffffffffffffffff1673ffffffffffffffffffffffffffffffffffffffff1681526020019060010190808311610e97575b5050505050905090565b60008073ffffffffffffffffffffffffffffffffffffffff168373ffffffffffffffffffffffffffffffffffffffff1603610f52576040517f96312c2700000000000000000000000000000000000000000000000000000000815260040160405180910390fd5b6000600160008573ffffffffffffffffffffffffffffffffffffffff1673ffffffffffffffffffffffffffffffffffffffff16815260200190815260200160002060009054906101000a900473ffffffffffffffffffffffffffffffffffffffff1690506000610fd78273ffffffffffffffffffffffffffffffffffffffff1661196a565b50505091505060008273ffffffffffffffffffffffffffffffffffffffff1663313ce5676040518163ffffffff1660e01b8152600401602060405180830381865afa15801561102a573d6000803e3d6000fd5b505050506040513d601f19601f8201168201806040525081019061104e91906120e8565b9050600081600a61105f9190612248565b670de0b6b3a7640000846110739190611e9d565b61107d9190611f0e565b9050670de0b6b3a764000086826110949190611e9d565b61109e9190611f0e565b94505050505092915050565b80600081036110e5576040517fcb1d3f7d00000000000000000000000000000000000000000000000000000000815260040160405180910390fd5b6110ed611488565b6000600360003373ffffffffffffffffffffffffffffffffffffffff1673ffffffffffffffffffffffffffffffffffffffff168152602001908152602001600020549050678ac7230489e8000083826111469190611f3f565b10156111c857600360003373ffffffffffffffffffffffffffffffffffffffff1673ffffffffffffffffffffffffffffffffffffffff168152602001908152602001600020546040517fa7db492e0000000000000000000000000000000000000000000000000000000081526004016111bf9190611b42565b60405180910390fd5b82816111d49190611f3f565b600360003373ffffffffffffffffffffffffffffffffffffffff1673ffffffffffffffffffffffffffffffffffffffff168152602001908152602001600020819055506112203361190c565b60007f000000000000000000000000000000000000000000000000000000000000000073ffffffffffffffffffffffffffffffffffffffff166340c10f1933866040518363ffffffff1660e01b815260040161127d929190611f73565b6020604051808303816000875af115801561129c573d6000803e3d6000fd5b505050506040513d601f19601f820116820180604052508101906112c09190612082565b9050806112f9576040517f30eb0fc900000000000000000000000000000000000000000000000000000000815260040160405180910390fd5b833373ffffffffffffffffffffffffffffffffffffffff167f8db25d285cfee36b751645e359b467e6607747eb227c55242e25bf4030ebdb2e60405160405180910390a35050611347611902565b5050565b60036020528060005260406000206000915090505481565b60007f0000000000000000000000000000000000000000000000000000000000000000905090565b61139583836109dd565b61139e816110aa565b505050565b6113ac816113bb565b6113b68383610978565b505050565b80600081036113f6576040517fcb1d3f7d00000000000000000000000000000000000000000000000000000000815260040160405180910390fd5b611401823333611720565b5050565b6000611410826114d7565b9050919050565b6000808303611448577fffffffffffffffffffffffffffffffffffffffffffffffffffffffffffffffff9050611482565b8260646114559190611e9d565b670de0b6b3a764000060328461146b9190611e9d565b6114759190611e9d565b61147f9190611f0e565b90505b92915050565b6002600054036114cd576040517f08c379a00000000000000000000000000000000000000000000000000000000081526004016114c4906122f0565b60405180910390fd5b6002600081905550565b60008060006114e5846114fc565b915091506114f38282611417565b92505050919050565b600080600360008473ffffffffffffffffffffffffffffffffffffffff1673ffffffffffffffffffffffffffffffffffffffff16815260200190815260200160002054915061154a83610840565b9050915091565b80600260008673ffffffffffffffffffffffffffffffffffffffff1673ffffffffffffffffffffffffffffffffffffffff16815260200190815260200160002060008473ffffffffffffffffffffffffffffffffffffffff1673ffffffffffffffffffffffffffffffffffffffff16815260200190815260200160002060008282546115dd9190612310565b925050819055508173ffffffffffffffffffffffffffffffffffffffff168373ffffffffffffffffffffffffffffffffffffffff168573ffffffffffffffffffffffffffffffffffffffff167fb292db12b8dfa23b760ee5e3bd1d3be184cd8f0eeeacd27ce120d4de4e4721f6846040516116589190611b42565b60405180910390a460008273ffffffffffffffffffffffffffffffffffffffff1663a9059cbb85846040518363ffffffff1660e01b815260040161169d929190611f73565b6020604051808303816000875af11580156116bc573d6000803e3d6000fd5b505050506040513d601f19601f820116820180604052508101906116e09190612082565b905080611719576040517f4dc34d1700000000000000000000000000000000000000000000000000000000815260040160405180910390fd5b5050505050565b82600360008473ffffffffffffffffffffffffffffffffffffffff1673ffffffffffffffffffffffffffffffffffffffff168152602001908152602001600020600082825461176f9190612310565b925050819055507f000000000000000000000000000000000000000000000000000000000000000073ffffffffffffffffffffffffffffffffffffffff166323b872dd8230866040518463ffffffff1660e01b81526004016117d393929190612013565b6020604051808303816000875af11580156117f2573d6000803e3d6000fd5b505050506040513d601f19601f820116820180604052508101906118169190612082565b507f000000000000000000000000000000000000000000000000000000000000000073ffffffffffffffffffffffffffffffffffffffff166342966c68846040518263ffffffff1660e01b81526004016118709190611b42565b600060405180830381600087803b15801561188a57600080fd5b505af115801561189e573d6000803e3d6000fd5b505050508073ffffffffffffffffffffffffffffffffffffffff16838373ffffffffffffffffffffffffffffffffffffffff167fb3d60d306c0c5dedcdbec78a78df40366db6aa0b62000677c7fbdecc932aa49e60405160405180910390a4505050565b6001600081905550565b6000611917826114d7565b9050670de0b6b3a764000081101561196657806040517fe580cc6100000000000000000000000000000000000000000000000000000000815260040161195d9190611b42565b60405180910390fd5b5050565b6000806000806000806000806000808a73ffffffffffffffffffffffffffffffffffffffff1663feaf968c6040518163ffffffff1660e01b815260040160a060405180830381865afa1580156119c4573d6000803e3d6000fd5b505050506040513d601f19601f820116820180604052508101906119e891906123d1565b945094509450945094506000821480611a1857508469ffffffffffffffffffff168169ffffffffffffffffffff16105b15611a4f576040517fc4a1093a00000000000000000000000000000000000000000000000000000000815260040160405180910390fd5b60008242611a5d9190612310565b9050605a811115611a9a576040517fc4a1093a00000000000000000000000000000000000000000000000000000000815260040160405180910390fd5b85858585859a509a509a509a509a5050505050505091939590929450565b600080fd5b6000819050919050565b611ad081611abd565b8114611adb57600080fd5b50565b600081359050611aed81611ac7565b92915050565b60008060408385031215611b0a57611b09611ab8565b5b6000611b1885828601611ade565b9250506020611b2985828601611ade565b9150509250929050565b611b3c81611abd565b82525050565b6000602082019050611b576000830184611b33565b92915050565b600073ffffffffffffffffffffffffffffffffffffffff82169050919050565b6000611b8882611b5d565b9050919050565b611b9881611b7d565b8114611ba357600080fd5b50565b600081359050611bb581611b8f565b92915050565b600060208284031215611bd157611bd0611ab8565b5b6000611bdf84828501611ba6565b91505092915050565b611bf181611b7d565b82525050565b6000602082019050611c0c6000830184611be8565b92915050565b600080600060608486031215611c2b57611c2a611ab8565b5b6000611c3986828701611ba6565b9350506020611c4a86828701611ba6565b9250506040611c5b86828701611ade565b9150509250925092565b60008060408385031215611c7c57611c7b611ab8565b5b6000611c8a85828601611ba6565b9250506020611c9b85828601611ba6565b9150509250929050565b6000604082019050611cba6000830185611b33565b611cc76020830184611b33565b9392505050565b60008060408385031215611ce557611ce4611ab8565b5b6000611cf385828601611ba6565b9250506020611d0485828601611ade565b9150509250929050565b600081519050919050565b600082825260208201905092915050565b6000819050602082019050919050565b611d4381611b7d565b82525050565b6000611d558383611d3a565b60208301905092915050565b6000602082019050919050565b6000611d7982611d0e565b611d838185611d19565b9350611d8e83611d2a565b8060005b83811015611dbf578151611da68882611d49565b9750611db183611d61565b925050600181019050611d92565b5085935050505092915050565b60006020820190508181036000830152611de68184611d6e565b905092915050565b600060208284031215611e0457611e03611ab8565b5b6000611e1284828501611ade565b91505092915050565b600080600060608486031215611e3457611e33611ab8565b5b6000611e4286828701611ba6565b9350506020611e5386828701611ade565b9250506040611e6486828701611ade565b9150509250925092565b7f4e487b7100000000000000000000000000000000000000000000000000000000600052601160045260246000fd5b6000611ea882611abd565b9150611eb383611abd565b9250828202611ec181611abd565b91508282048414831517611ed857611ed7611e6e565b5b5092915050565b7f4e487b7100000000000000000000000000000000000000000000000000000000600052601260045260246000fd5b6000611f1982611abd565b9150611f2483611abd565b925082611f3457611f33611edf565b5b828204905092915050565b6000611f4a82611abd565b9150611f5583611abd565b9250828201905080821115611f6d57611f6c611e6e565b5b92915050565b6000604082019050611f886000830185611be8565b611f956020830184611b33565b9392505050565b7f4e487b7100000000000000000000000000000000000000000000000000000000600052603260045260246000fd5b6000611fd682611abd565b91507fffffffffffffffffffffffffffffffffffffffffffffffffffffffffffffffff820361200857612007611e6e565b5b600182019050919050565b60006060820190506120286000830186611be8565b6120356020830185611be8565b6120426040830184611b33565b949350505050565b60008115159050919050565b61205f8161204a565b811461206a57600080fd5b50565b60008151905061207c81612056565b92915050565b60006020828403121561209857612097611ab8565b5b60006120a68482850161206d565b91505092915050565b600060ff82169050919050565b6120c5816120af565b81146120d057600080fd5b50565b6000815190506120e2816120bc565b92915050565b6000602082840312156120fe576120fd611ab8565b5b600061210c848285016120d3565b91505092915050565b60008160011c9050919050565b6000808291508390505b600185111561216c5780860481111561214857612147611e6e565b5b60018516156121575780820291505b808102905061216585612115565b945061212c565b94509492505050565b6000826121855760019050612241565b816121935760009050612241565b81600181146121a957600281146121b3576121e2565b6001915050612241565b60ff8411156121c5576121c4611e6e565b5b8360020a9150848211156121dc576121db611e6e565b5b50612241565b5060208310610133831016604e8410600b84101617156122175782820a90508381111561221257612211611e6e565b5b612241565b6122248484846001612122565b9250905081840481111561223b5761223a611e6e565b5b81810290505b9392505050565b600061225382611abd565b915061225e836120af565b925061228b7fffffffffffffffffffffffffffffffffffffffffffffffffffffffffffffffff8484612175565b905092915050565b600082825260208201905092915050565b7f5265656e7472616e637947756172643a207265656e7472616e742063616c6c00600082015250565b60006122da601f83612293565b91506122e5826122a4565b602082019050919050565b60006020820190508181036000830152612309816122cd565b9050919050565b600061231b82611abd565b915061232683611abd565b925082820390508181111561233e5761233d611e6e565b5b92915050565b600069ffffffffffffffffffff82169050919050565b61236381612344565b811461236e57600080fd5b50565b6000815190506123808161235a565b92915050565b6000819050919050565b61239981612386565b81146123a457600080fd5b50565b6000815190506123b681612390565b92915050565b6000815190506123cb81611ac7565b92915050565b600080600080600060a086880312156123ed576123ec611ab8565b5b60006123fb88828901612371565b955050602061240c888289016123a7565b945050604061241d888289016123bc565b935050606061242e888289016123bc565b925050608061243f88828901612371565b915050929550929590935056fea2646970667358221220fe82f45c9d96001c74b765e6c019c0a965f536a57a8e0b2177be7d06a172795b64736f6c63430008130033",
  "linkReferences": {},
  "deployedLinkReferences": {}
}