{
  "_format": "hh-sol-artifact-1",
  "contractName": "DSCEngine",
  "sourceName": "contracts/DSCEngine.sol",
  "abi": [
    {
      "inputs": [
        {
          "internalType": "address[]",
          "name": "tokenAddresses",
          "type": "address[]"
        },
        {
          "internalType": "address[]",
          "name": "priceFeedAddresses",
          "type": "address[]"
        },
        {
          "internalType": "address",
          "name": "dscAddress",
          "type": "address"
        }
      ],
      "stateMutability": "nonpayable",
      "type": "constructor"
    },
    {
      "inputs": [
        {
          "internalType": "uint256",
          "name": "healthFactor",
          "type": "uint256"
        }
      ],
      "name": "DSCEngine__BreaksHealthFactor",
      "type": "error"
    },
    {
      "inputs": [],
      "name": "DSCEngine__HealthFactorNotImproved",
      "type": "error"
    },
    {
      "inputs": [],
      "name": "DSCEngine__HealthFactorOk",
      "type": "error"
    },
    {
      "inputs": [],
      "name": "DSCEngine__MintFailed",
      "type": "error"
    },
    {
      "inputs": [],
      "name": "DSCEngine__NeedsMoreThanZero",
      "type": "error"
    },
    {
      "inputs": [],
      "name": "DSCEngine__NotAllowedToken",
      "type": "error"
    },
    {
      "inputs": [],
      "name": "DSCEngine__TokenAddressesAndPriceFeedAddressesMustBeSameLength",
      "type": "error"
    },
    {
      "inputs": [],
      "name": "DSCEngine__TransferFailed",
      "type": "error"
    },
    {
      "inputs": [],
      "name": "OracleLib__StalePrice",
      "type": "error"
    },
    {
      "anonymous": false,
      "inputs": [
        {
          "indexed": true,
          "internalType": "address",
          "name": "user",
          "type": "address"
        },
        {
          "indexed": true,
          "internalType": "address",
          "name": "token",
          "type": "address"
        },
        {
          "indexed": true,
          "internalType": "uint256",
          "name": "amount",
          "type": "uint256"
        }
      ],
      "name": "CollateralDeposited",
      "type": "event"
    },
    {
      "anonymous": false,
      "inputs": [
        {
          "indexed": true,
          "internalType": "address",
          "name": "redeemedFrom",
          "type": "address"
        },
        {
          "indexed": true,
          "internalType": "address",
          "name": "redeemedTo",
          "type": "address"
        },
        {
          "indexed": true,
          "internalType": "address",
          "name": "token",
          "type": "address"
        },
        {
          "indexed": false,
          "internalType": "uint256",
          "name": "amount",
          "type": "uint256"
        }
      ],
      "name": "CollateralRedeemed",
      "type": "event"
    },
    {
      "inputs": [
        {
          "internalType": "uint256",
          "name": "amount",
          "type": "uint256"
        }
      ],
      "name": "burnDsc",
      "outputs": [],
      "stateMutability": "nonpayable",
      "type": "function"
    },
    {
      "inputs": [
        {
          "internalType": "uint256",
          "name": "totalDscMinted",
          "type": "uint256"
        },
        {
          "internalType": "uint256",
          "name": "collateralValueInUsd",
          "type": "uint256"
        }
      ],
      "name": "calculateHealthFactor",
      "outputs": [
        {
          "internalType": "uint256",
          "name": "",
          "type": "uint256"
        }
      ],
      "stateMutability": "pure",
      "type": "function"
    },
    {
      "inputs": [
        {
          "internalType": "address",
          "name": "tokenCollateralAddress",
          "type": "address"
        },
        {
          "internalType": "uint256",
          "name": "amountCollateral",
          "type": "uint256"
        }
      ],
      "name": "depositCollateral",
      "outputs": [],
      "stateMutability": "nonpayable",
      "type": "function"
    },
    {
      "inputs": [
        {
          "internalType": "address",
          "name": "tokenCollateralAddress",
          "type": "address"
        },
        {
          "internalType": "uint256",
          "name": "amountCollateral",
          "type": "uint256"
        },
        {
          "internalType": "uint256",
          "name": "amountDscToMint",
          "type": "uint256"
        }
      ],
      "name": "depositCollateralAndMintDsc",
      "outputs": [],
      "stateMutability": "nonpayable",
      "type": "function"
    },
    {
      "inputs": [
        {
          "internalType": "address",
          "name": "user",
          "type": "address"
        }
      ],
      "name": "getAccountCollateralValue",
      "outputs": [
        {
          "internalType": "uint256",
          "name": "totalCollateralValueInUsd",
          "type": "uint256"
        }
      ],
      "stateMutability": "view",
      "type": "function"
    },
    {
      "inputs": [
        {
          "internalType": "address",
          "name": "user",
          "type": "address"
        }
      ],
      "name": "getAccountInformation",
      "outputs": [
        {
          "internalType": "uint256",
          "name": "totalDscMinted",
          "type": "uint256"
        },
        {
          "internalType": "uint256",
          "name": "collateralValueInUsd",
          "type": "uint256"
        }
      ],
      "stateMutability": "view",
      "type": "function"
    },
    {
      "inputs": [],
      "name": "getAdditionalFeedPrecision",
      "outputs": [
        {
          "internalType": "uint256",
          "name": "",
          "type": "uint256"
        }
      ],
      "stateMutability": "pure",
      "type": "function"
    },
    {
      "inputs": [
        {
          "internalType": "address",
          "name": "user",
          "type": "address"
        },
        {
          "internalType": "address",
          "name": "token",
          "type": "address"
        }
      ],
      "name": "getCollateralBalanceOfUser",
      "outputs": [
        {
          "internalType": "uint256",
          "name": "",
          "type": "uint256"
        }
      ],
      "stateMutability": "view",
      "type": "function"
    },
    {
      "inputs": [
        {
          "internalType": "address",
          "name": "token",
          "type": "address"
        }
      ],
      "name": "getCollateralTokenPriceFeed",
      "outputs": [
        {
          "internalType": "address",
          "name": "",
          "type": "address"
        }
      ],
      "stateMutability": "view",
      "type": "function"
    },
    {
      "inputs": [],
      "name": "getCollateralTokens",
      "outputs": [
        {
          "internalType": "address[]",
          "name": "",
          "type": "address[]"
        }
      ],
      "stateMutability": "view",
      "type": "function"
    },
    {
      "inputs": [],
      "name": "getDsc",
      "outputs": [
        {
          "internalType": "address",
          "name": "",
          "type": "address"
        }
      ],
      "stateMutability": "view",
      "type": "function"
    },
    {
      "inputs": [
        {
          "internalType": "address",
          "name": "user",
          "type": "address"
        }
      ],
      "name": "getHealthFactor",
      "outputs": [
        {
          "internalType": "uint256",
          "name": "",
          "type": "uint256"
        }
      ],
      "stateMutability": "view",
      "type": "function"
    },
    {
      "inputs": [],
      "name": "getLiquidationBonus",
      "outputs": [
        {
          "internalType": "uint256",
          "name": "",
          "type": "uint256"
        }
      ],
      "stateMutability": "pure",
      "type": "function"
    },
    {
      "inputs": [],
      "name": "getLiquidationThreshold",
      "outputs": [
        {
          "internalType": "uint256",
          "name": "",
          "type": "uint256"
        }
      ],
      "stateMutability": "pure",
      "type": "function"
    },
    {
      "inputs": [],
      "name": "getMinHealthFactor",
      "outputs": [
        {
          "internalType": "uint256",
          "name": "",
          "type": "uint256"
        }
      ],
      "stateMutability": "pure",
      "type": "function"
    },
    {
      "inputs": [],
      "name": "getPrecision",
      "outputs": [
        {
          "internalType": "uint256",
          "name": "",
          "type": "uint256"
        }
      ],
      "stateMutability": "pure",
      "type": "function"
    },
    {
      "inputs": [
        {
          "internalType": "address",
          "name": "token",
          "type": "address"
        },
        {
          "internalType": "uint256",
          "name": "usdAmountInWei",
          "type": "uint256"
        }
      ],
      "name": "getTokenAmountFromUsd",
      "outputs": [
        {
          "internalType": "uint256",
          "name": "",
          "type": "uint256"
        }
      ],
      "stateMutability": "view",
      "type": "function"
    },
    {
      "inputs": [
        {
          "internalType": "address",
          "name": "token",
          "type": "address"
        },
        {
          "internalType": "uint256",
          "name": "amount",
          "type": "uint256"
        }
      ],
      "name": "getUsdValue",
      "outputs": [
        {
          "internalType": "uint256",
          "name": "",
          "type": "uint256"
        }
      ],
      "stateMutability": "view",
      "type": "function"
    },
    {
      "inputs": [
        {
          "internalType": "address",
          "name": "collateral",
          "type": "address"
        },
        {
          "internalType": "address",
          "name": "user",
          "type": "address"
        },
        {
          "internalType": "uint256",
          "name": "debtToCover",
          "type": "uint256"
        }
      ],
      "name": "liquidate",
      "outputs": [],
      "stateMutability": "nonpayable",
      "type": "function"
    },
    {
      "inputs": [
        {
          "internalType": "uint256",
          "name": "amountDscToMint",
          "type": "uint256"
        }
      ],
      "name": "mintDsc",
      "outputs": [],
      "stateMutability": "nonpayable",
      "type": "function"
    },
    {
      "inputs": [
        {
          "internalType": "address",
          "name": "tokenCollateralAddress",
          "type": "address"
        },
        {
          "internalType": "uint256",
          "name": "amountCollateral",
          "type": "uint256"
        }
      ],
      "name": "redeemCollateral",
      "outputs": [],
      "stateMutability": "nonpayable",
      "type": "function"
    },
    {
      "inputs": [
        {
          "internalType": "address",
          "name": "tokenCollateralAddress",
          "type": "address"
        },
        {
          "internalType": "uint256",
          "name": "amountCollateral",
          "type": "uint256"
        },
        {
          "internalType": "uint256",
          "name": "amountDscToBurn",
          "type": "uint256"
        }
      ],
      "name": "redeemCollateralForDsc",
      "outputs": [],
      "stateMutability": "nonpayable",
      "type": "function"
    }
  ],
  "bytecode": "0x60a06040523480156200001157600080fd5b506040516200237d3803806200237d833981810160405281019062000037919062000402565b600160008190555081518351146200007b576040517fb5c5c12600000000000000000000000000000000000000000000000000000000815260040160405180910390fd5b60005b8351811015620001d6578281815181106200009e576200009d6200049c565b5b602002602001015160016000868481518110620000c057620000bf6200049c565b5b602002602001015173ffffffffffffffffffffffffffffffffffffffff1673ffffffffffffffffffffffffffffffffffffffff16815260200190815260200160002060006101000a81548173ffffffffffffffffffffffffffffffffffffffff021916908373ffffffffffffffffffffffffffffffffffffffff16021790555060048482815181106200015857620001576200049c565b5b60200260200101519080600181540180825580915050600190039060005260206000200160009091909190916101000a81548173ffffffffffffffffffffffffffffffffffffffff021916908373ffffffffffffffffffffffffffffffffffffffff1602179055508080620001cd9062000504565b9150506200007e565b508073ffffffffffffffffffffffffffffffffffffffff1660808173ffffffffffffffffffffffffffffffffffffffff168152505050505062000551565b6000604051905090565b600080fd5b600080fd5b600080fd5b6000601f19601f8301169050919050565b7f4e487b7100000000000000000000000000000000000000000000000000000000600052604160045260246000fd5b62000278826200022d565b810181811067ffffffffffffffff821117156200029a57620002996200023e565b5b80604052505050565b6000620002af62000214565b9050620002bd82826200026d565b919050565b600067ffffffffffffffff821115620002e057620002df6200023e565b5b602082029050602081019050919050565b600080fd5b600073ffffffffffffffffffffffffffffffffffffffff82169050919050565b60006200032382620002f6565b9050919050565b620003358162000316565b81146200034157600080fd5b50565b60008151905062000355816200032a565b92915050565b6000620003726200036c84620002c2565b620002a3565b90508083825260208201905060208402830185811115620003985762000397620002f1565b5b835b81811015620003c55780620003b0888262000344565b8452602084019350506020810190506200039a565b5050509392505050565b600082601f830112620003e757620003e662000228565b5b8151620003f98482602086016200035b565b91505092915050565b6000806000606084860312156200041e576200041d6200021e565b5b600084015167ffffffffffffffff8111156200043f576200043e62000223565b5b6200044d86828701620003cf565b935050602084015167ffffffffffffffff81111562000471576200047062000223565b5b6200047f86828701620003cf565b9250506040620004928682870162000344565b9150509250925092565b7f4e487b7100000000000000000000000000000000000000000000000000000000600052603260045260246000fd5b7f4e487b7100000000000000000000000000000000000000000000000000000000600052601160045260246000fd5b6000819050919050565b60006200051182620004fa565b91507fffffffffffffffffffffffffffffffffffffffffffffffffffffffffffffffff8203620005465762000545620004cb565b5b600182019050919050565b608051611dfb6200058260003960008181610dee01528181610ed4015281816112a1015261137a0152611dfb6000f3fe608060405234801561001057600080fd5b50600436106101425760003560e01c80639acd81b3116100b8578063c9b7c3271161007c578063c9b7c327146103a0578063deb8e018146103bc578063e90db8a3146103da578063f419ea9c146103f6578063f687660814610412578063fe6bcd7c1461042e57610142565b80639acd81b3146102ea578063a5d5db0c14610306578063afea2e4814610322578063b58eb63f14610352578063c660d1121461037057610142565b806359aa9e721161010a57806359aa9e72146102115780637be564fc1461022f5780637d1a4450146102605780638c1ae6c8146102905780638f63d667146102ae5780639670c0bc146102cc57610142565b806301f72884146101475780631c08adda1461017757806326c01303146101a757806331e92b83146101c35780634ae9b8bc146101f3575b600080fd5b610161600480360381019061015c9190611650565b61045e565b60405161016e919061169f565b60405180910390f35b610191600480360381019061018c9190611718565b610472565b60405161019e9190611754565b60405180910390f35b6101c160048036038101906101bc919061176f565b6104db565b005b6101dd60048036038101906101d891906117c2565b610620565b6040516101ea919061169f565b60405180910390f35b6101fb6106a7565b604051610208919061169f565b60405180910390f35b6102196106b0565b604051610226919061169f565b60405180910390f35b61024960048036038101906102449190611718565b6106b9565b604051610257929190611802565b60405180910390f35b61027a60048036038101906102759190611718565b6106d2565b604051610287919061169f565b60405180910390f35b6102986107dd565b6040516102a5919061169f565b60405180910390f35b6102b66107ed565b6040516102c3919061169f565b60405180910390f35b6102d46107fa565b6040516102e1919061169f565b60405180910390f35b61030460048036038101906102ff919061182b565b61080a565b005b610320600480360381019061031b919061182b565b61086f565b005b61033c6004803603810190610337919061182b565b610b30565b604051610349919061169f565b60405180910390f35b61035a610bf5565b6040516103679190611929565b60405180910390f35b61038a6004803603810190610385919061182b565b610c83565b604051610397919061169f565b60405180910390f35b6103ba60048036038101906103b5919061194b565b610d48565b005b6103c4610ed0565b6040516103d19190611754565b60405180910390f35b6103f460048036038101906103ef9190611978565b610ef8565b005b610410600480360381019061040b9190611978565b610f10565b005b61042c6004803603810190610427919061194b565b610f28565b005b61044860048036038101906104439190611718565b610f7b565b604051610455919061169f565b60405180910390f35b600061046a8383610f8d565b905092915050565b6000600160008373ffffffffffffffffffffffffffffffffffffffff1673ffffffffffffffffffffffffffffffffffffffff16815260200190815260200160002060009054906101000a900473ffffffffffffffffffffffffffffffffffffffff169050919050565b8060008103610516576040517fcb1d3f7d00000000000000000000000000000000000000000000000000000000815260040160405180910390fd5b61051e611004565b600061052984611053565b9050670de0b6b3a7640000811061056c576040517f32c072f000000000000000000000000000000000000000000000000000000000815260040160405180910390fd5b60006105788685610b30565b905060006064600a8361058b91906119fa565b6105959190611a6b565b9050600081836105a59190611a9c565b90506105b387338a84611078565b6105be868833611247565b60006105c988611053565b9050848111610604576040517f7c28362000000000000000000000000000000000000000000000000000000000815260040160405180910390fd5b61060d33611409565b505050505061061a611467565b50505050565b6000600260008473ffffffffffffffffffffffffffffffffffffffff1673ffffffffffffffffffffffffffffffffffffffff16815260200190815260200160002060008373ffffffffffffffffffffffffffffffffffffffff1673ffffffffffffffffffffffffffffffffffffffff16815260200190815260200160002054905092915050565b60006032905090565b6000600a905090565b6000806106c583611471565b8092508193505050915091565b600080600090505b6004805490508110156107d7576000600482815481106106fd576106fc611ad0565b5b9060005260206000200160009054906101000a900473ffffffffffffffffffffffffffffffffffffffff1690506000600260008673ffffffffffffffffffffffffffffffffffffffff1673ffffffffffffffffffffffffffffffffffffffff16815260200190815260200160002060008373ffffffffffffffffffffffffffffffffffffffff1673ffffffffffffffffffffffffffffffffffffffff1681526020019081526020016000205490506107b58282610c83565b846107c09190611a9c565b9350505080806107cf90611aff565b9150506106da565b50919050565b6000670de0b6b3a7640000905090565b60006402540be400905090565b6000670de0b6b3a7640000905090565b8060008103610845576040517fcb1d3f7d00000000000000000000000000000000000000000000000000000000815260040160405180910390fd5b61084d611004565b61085933338585611078565b61086233611409565b61086a611467565b505050565b80600081036108aa576040517fcb1d3f7d00000000000000000000000000000000000000000000000000000000815260040160405180910390fd5b82600073ffffffffffffffffffffffffffffffffffffffff16600160008373ffffffffffffffffffffffffffffffffffffffff1673ffffffffffffffffffffffffffffffffffffffff16815260200190815260200160002060009054906101000a900473ffffffffffffffffffffffffffffffffffffffff1673ffffffffffffffffffffffffffffffffffffffff1603610970576040517fa802cfbe00000000000000000000000000000000000000000000000000000000815260040160405180910390fd5b610978611004565b82600260003373ffffffffffffffffffffffffffffffffffffffff1673ffffffffffffffffffffffffffffffffffffffff16815260200190815260200160002060008673ffffffffffffffffffffffffffffffffffffffff1673ffffffffffffffffffffffffffffffffffffffff1681526020019081526020016000206000828254610a049190611a9c565b92505081905550828473ffffffffffffffffffffffffffffffffffffffff163373ffffffffffffffffffffffffffffffffffffffff167ff1c0dd7e9b98bbff859029005ef89b127af049cd18df1a8d79f0b7e019911e5660405160405180910390a460008473ffffffffffffffffffffffffffffffffffffffff166323b872dd3330876040518463ffffffff1660e01b8152600401610aa593929190611b47565b6020604051808303816000875af1158015610ac4573d6000803e3d6000fd5b505050506040513d601f19601f82011682018060405250810190610ae89190611bb6565b905080610b21576040517f4dc34d1700000000000000000000000000000000000000000000000000000000815260040160405180910390fd5b50610b2a611467565b50505050565b600080600160008573ffffffffffffffffffffffffffffffffffffffff1673ffffffffffffffffffffffffffffffffffffffff16815260200190815260200160002060009054906101000a900473ffffffffffffffffffffffffffffffffffffffff1690506000610bb68273ffffffffffffffffffffffffffffffffffffffff166114c6565b5050509150506402540be40081610bcd91906119fa565b670de0b6b3a764000085610be191906119fa565b610beb9190611a6b565b9250505092915050565b60606004805480602002602001604051908101604052809291908181526020018280548015610c7957602002820191906000526020600020905b8160009054906101000a900473ffffffffffffffffffffffffffffffffffffffff1673ffffffffffffffffffffffffffffffffffffffff1681526020019060010190808311610c2f575b5050505050905090565b600080600160008573ffffffffffffffffffffffffffffffffffffffff1673ffffffffffffffffffffffffffffffffffffffff16815260200190815260200160002060009054906101000a900473ffffffffffffffffffffffffffffffffffffffff1690506000610d098273ffffffffffffffffffffffffffffffffffffffff166114c6565b505050915050670de0b6b3a7640000846402540be40083610d2a91906119fa565b610d3491906119fa565b610d3e9190611a6b565b9250505092915050565b8060008103610d83576040517fcb1d3f7d00000000000000000000000000000000000000000000000000000000815260040160405180910390fd5b610d8b611004565b81600360003373ffffffffffffffffffffffffffffffffffffffff1673ffffffffffffffffffffffffffffffffffffffff1681526020019081526020016000206000828254610dda9190611a9c565b92505081905550610dea33611409565b60007f000000000000000000000000000000000000000000000000000000000000000073ffffffffffffffffffffffffffffffffffffffff166340c10f1933856040518363ffffffff1660e01b8152600401610e47929190611be3565b6020604051808303816000875af1158015610e66573d6000803e3d6000fd5b505050506040513d601f19601f82011682018060405250810190610e8a9190611bb6565b905080610ec3576040517f30eb0fc900000000000000000000000000000000000000000000000000000000815260040160405180910390fd5b50610ecc611467565b5050565b60007f0000000000000000000000000000000000000000000000000000000000000000905090565b610f02838361086f565b610f0b81610d48565b505050565b610f1981610f28565b610f23838361080a565b505050565b8060008103610f63576040517fcb1d3f7d00000000000000000000000000000000000000000000000000000000815260040160405180910390fd5b610f6e823333611247565b610f7733611409565b5050565b6000610f8682611053565b9050919050565b6000808303610fbe577fffffffffffffffffffffffffffffffffffffffffffffffffffffffffffffffff9050610ffe565b60006064603284610fcf91906119fa565b610fd99190611a6b565b905083670de0b6b3a764000082610ff091906119fa565b610ffa9190611a6b565b9150505b92915050565b600260005403611049576040517f08c379a000000000000000000000000000000000000000000000000000000000815260040161104090611c69565b60405180910390fd5b6002600081905550565b600080600061106184611471565b9150915061106f8282610f8d565b92505050919050565b80600260008673ffffffffffffffffffffffffffffffffffffffff1673ffffffffffffffffffffffffffffffffffffffff16815260200190815260200160002060008473ffffffffffffffffffffffffffffffffffffffff1673ffffffffffffffffffffffffffffffffffffffff16815260200190815260200160002060008282546111049190611c89565b925050819055508173ffffffffffffffffffffffffffffffffffffffff168373ffffffffffffffffffffffffffffffffffffffff168573ffffffffffffffffffffffffffffffffffffffff167fb292db12b8dfa23b760ee5e3bd1d3be184cd8f0eeeacd27ce120d4de4e4721f68460405161117f919061169f565b60405180910390a460008273ffffffffffffffffffffffffffffffffffffffff1663a9059cbb85846040518363ffffffff1660e01b81526004016111c4929190611be3565b6020604051808303816000875af11580156111e3573d6000803e3d6000fd5b505050506040513d601f19601f820116820180604052508101906112079190611bb6565b905080611240576040517f4dc34d1700000000000000000000000000000000000000000000000000000000815260040160405180910390fd5b5050505050565b82600360008473ffffffffffffffffffffffffffffffffffffffff1673ffffffffffffffffffffffffffffffffffffffff16815260200190815260200160002060008282546112969190611c89565b9250508190555060007f000000000000000000000000000000000000000000000000000000000000000073ffffffffffffffffffffffffffffffffffffffff166323b872dd8330876040518463ffffffff1660e01b81526004016112fc93929190611b47565b6020604051808303816000875af115801561131b573d6000803e3d6000fd5b505050506040513d601f19601f8201168201806040525081019061133f9190611bb6565b905080611378576040517f4dc34d1700000000000000000000000000000000000000000000000000000000815260040160405180910390fd5b7f000000000000000000000000000000000000000000000000000000000000000073ffffffffffffffffffffffffffffffffffffffff166342966c68856040518263ffffffff1660e01b81526004016113d1919061169f565b600060405180830381600087803b1580156113eb57600080fd5b505af11580156113ff573d6000803e3d6000fd5b5050505050505050565b600061141482611053565b9050670de0b6b3a764000081101561146357806040517fe580cc6100000000000000000000000000000000000000000000000000000000815260040161145a919061169f565b60405180910390fd5b5050565b6001600081905550565b600080600360008473ffffffffffffffffffffffffffffffffffffffff1673ffffffffffffffffffffffffffffffffffffffff1681526020019081526020016000205491506114bf836106d2565b9050915091565b6000806000806000806000806000808a73ffffffffffffffffffffffffffffffffffffffff1663feaf968c6040518163ffffffff1660e01b815260040160a060405180830381865afa158015611520573d6000803e3d6000fd5b505050506040513d601f19601f820116820180604052508101906115449190611d4a565b94509450945094509450600082148061157457508469ffffffffffffffffffff168169ffffffffffffffffffff16105b156115ab576040517fc4a1093a00000000000000000000000000000000000000000000000000000000815260040160405180910390fd5b600082426115b99190611c89565b9050612a308111156115f7576040517fc4a1093a00000000000000000000000000000000000000000000000000000000815260040160405180910390fd5b85858585859a509a509a509a509a5050505050505091939590929450565b600080fd5b6000819050919050565b61162d8161161a565b811461163857600080fd5b50565b60008135905061164a81611624565b92915050565b6000806040838503121561166757611666611615565b5b60006116758582860161163b565b92505060206116868582860161163b565b9150509250929050565b6116998161161a565b82525050565b60006020820190506116b46000830184611690565b92915050565b600073ffffffffffffffffffffffffffffffffffffffff82169050919050565b60006116e5826116ba565b9050919050565b6116f5816116da565b811461170057600080fd5b50565b600081359050611712816116ec565b92915050565b60006020828403121561172e5761172d611615565b5b600061173c84828501611703565b91505092915050565b61174e816116da565b82525050565b60006020820190506117696000830184611745565b92915050565b60008060006060848603121561178857611787611615565b5b600061179686828701611703565b93505060206117a786828701611703565b92505060406117b88682870161163b565b9150509250925092565b600080604083850312156117d9576117d8611615565b5b60006117e785828601611703565b92505060206117f885828601611703565b9150509250929050565b60006040820190506118176000830185611690565b6118246020830184611690565b9392505050565b6000806040838503121561184257611841611615565b5b600061185085828601611703565b92505060206118618582860161163b565b9150509250929050565b600081519050919050565b600082825260208201905092915050565b6000819050602082019050919050565b6118a0816116da565b82525050565b60006118b28383611897565b60208301905092915050565b6000602082019050919050565b60006118d68261186b565b6118e08185611876565b93506118eb83611887565b8060005b8381101561191c57815161190388826118a6565b975061190e836118be565b9250506001810190506118ef565b5085935050505092915050565b6000602082019050818103600083015261194381846118cb565b905092915050565b60006020828403121561196157611960611615565b5b600061196f8482850161163b565b91505092915050565b60008060006060848603121561199157611990611615565b5b600061199f86828701611703565b93505060206119b08682870161163b565b92505060406119c18682870161163b565b9150509250925092565b7f4e487b7100000000000000000000000000000000000000000000000000000000600052601160045260246000fd5b6000611a058261161a565b9150611a108361161a565b9250828202611a1e8161161a565b91508282048414831517611a3557611a346119cb565b5b5092915050565b7f4e487b7100000000000000000000000000000000000000000000000000000000600052601260045260246000fd5b6000611a768261161a565b9150611a818361161a565b925082611a9157611a90611a3c565b5b828204905092915050565b6000611aa78261161a565b9150611ab28361161a565b9250828201905080821115611aca57611ac96119cb565b5b92915050565b7f4e487b7100000000000000000000000000000000000000000000000000000000600052603260045260246000fd5b6000611b0a8261161a565b91507fffffffffffffffffffffffffffffffffffffffffffffffffffffffffffffffff8203611b3c57611b3b6119cb565b5b600182019050919050565b6000606082019050611b5c6000830186611745565b611b696020830185611745565b611b766040830184611690565b949350505050565b60008115159050919050565b611b9381611b7e565b8114611b9e57600080fd5b50565b600081519050611bb081611b8a565b92915050565b600060208284031215611bcc57611bcb611615565b5b6000611bda84828501611ba1565b91505092915050565b6000604082019050611bf86000830185611745565b611c056020830184611690565b9392505050565b600082825260208201905092915050565b7f5265656e7472616e637947756172643a207265656e7472616e742063616c6c00600082015250565b6000611c53601f83611c0c565b9150611c5e82611c1d565b602082019050919050565b60006020820190508181036000830152611c8281611c46565b9050919050565b6000611c948261161a565b9150611c9f8361161a565b9250828203905081811115611cb757611cb66119cb565b5b92915050565b600069ffffffffffffffffffff82169050919050565b611cdc81611cbd565b8114611ce757600080fd5b50565b600081519050611cf981611cd3565b92915050565b6000819050919050565b611d1281611cff565b8114611d1d57600080fd5b50565b600081519050611d2f81611d09565b92915050565b600081519050611d4481611624565b92915050565b600080600080600060a08688031215611d6657611d65611615565b5b6000611d7488828901611cea565b9550506020611d8588828901611d20565b9450506040611d9688828901611d35565b9350506060611da788828901611d35565b9250506080611db888828901611cea565b915050929550929590935056fea26469706673582212204491c88f854fc915a759478be497b00831c1cb6c50baffada99effd4a15d620364736f6c63430008130033",
  "linkReferences": {},
  "deployedLinkReferences": {}
}